{
  "contractName": "coin",
  "abi": [
    {
      "inputs": [],
      "payable": true,
      "stateMutability": "payable",
      "type": "constructor"
    },
    {
      "anonymous": false,
      "inputs": [
        {
          "indexed": false,
          "internalType": "uint256",
          "name": "randomNumber",
          "type": "uint256"
        }
      ],
      "name": "generateRandomNumber",
      "type": "event"
    },
    {
      "anonymous": false,
      "inputs": [
        {
          "indexed": false,
          "internalType": "string",
          "name": "description",
          "type": "string"
        }
      ],
      "name": "logNewProvableQuery",
      "type": "event"
    },
    {
      "constant": true,
      "inputs": [],
      "name": "TotGames",
      "outputs": [
        {
          "internalType": "uint256",
          "name": "",
          "type": "uint256"
        }
      ],
      "payable": false,
      "stateMutability": "view",
      "type": "function"
    },
    {
      "constant": true,
      "inputs": [],
      "name": "TotGamesWon",
      "outputs": [
        {
          "internalType": "uint256",
          "name": "",
          "type": "uint256"
        }
      ],
      "payable": false,
      "stateMutability": "view",
      "type": "function"
    },
    {
      "constant": true,
      "inputs": [],
      "name": "TotMoneyBetted",
      "outputs": [
        {
          "internalType": "uint256",
          "name": "",
          "type": "uint256"
        }
      ],
      "payable": false,
      "stateMutability": "view",
      "type": "function"
    },
    {
      "constant": true,
      "inputs": [],
      "name": "TotMoneyWon",
      "outputs": [
        {
          "internalType": "uint256",
          "name": "",
          "type": "uint256"
        }
      ],
      "payable": false,
      "stateMutability": "view",
      "type": "function"
    },
    {
      "constant": true,
      "inputs": [],
      "name": "TotUniquePlayers",
      "outputs": [
        {
          "internalType": "uint256",
          "name": "",
          "type": "uint256"
        }
      ],
      "payable": false,
      "stateMutability": "view",
      "type": "function"
    },
    {
      "constant": true,
      "inputs": [],
      "name": "balance",
      "outputs": [
        {
          "internalType": "uint256",
          "name": "",
          "type": "uint256"
        }
      ],
      "payable": false,
      "stateMutability": "view",
      "type": "function"
    },
    {
      "constant": true,
      "inputs": [],
      "name": "minBet",
      "outputs": [
        {
          "internalType": "uint256",
          "name": "",
          "type": "uint256"
        }
      ],
      "payable": false,
      "stateMutability": "view",
      "type": "function"
    },
    {
      "constant": true,
      "inputs": [],
      "name": "owner",
      "outputs": [
        {
          "internalType": "address",
          "name": "",
          "type": "address"
        }
      ],
      "payable": false,
      "stateMutability": "view",
      "type": "function"
    },
    {
      "constant": false,
      "inputs": [
        {
          "internalType": "uint256",
          "name": "minimum",
          "type": "uint256"
        }
      ],
      "name": "minimumBet",
      "outputs": [
        {
          "internalType": "uint256",
          "name": "",
          "type": "uint256"
        }
      ],
      "payable": false,
      "stateMutability": "nonpayable",
      "type": "function"
    },
    {
      "constant": false,
      "inputs": [
        {
          "internalType": "uint256",
          "name": "amount",
          "type": "uint256"
        },
        {
          "internalType": "uint256",
          "name": "bet",
          "type": "uint256"
        }
      ],
      "name": "setBet",
      "outputs": [],
      "payable": true,
      "stateMutability": "payable",
      "type": "function"
    },
    {
      "constant": false,
      "inputs": [
        {
          "internalType": "bytes32",
          "name": "_myid",
          "type": "bytes32"
        },
        {
          "internalType": "string",
          "name": "_result",
          "type": "string"
        }
      ],
      "name": "__callback",
      "outputs": [],
      "payable": false,
      "stateMutability": "nonpayable",
      "type": "function"
    },
    {
      "constant": false,
      "inputs": [
        {
          "internalType": "bytes32",
          "name": "_queryId",
          "type": "bytes32"
        },
        {
          "internalType": "string",
          "name": "_result",
          "type": "string"
        },
        {
          "internalType": "bytes",
          "name": "proof",
          "type": "bytes"
        }
      ],
      "name": "__callback",
      "outputs": [],
      "payable": false,
      "stateMutability": "nonpayable",
      "type": "function"
    },
    {
      "constant": true,
      "inputs": [],
      "name": "getResult",
      "outputs": [
        {
          "internalType": "uint256",
          "name": "amount",
          "type": "uint256"
        },
        {
          "internalType": "uint256",
          "name": "bet",
          "type": "uint256"
        },
        {
          "internalType": "string",
          "name": "message",
          "type": "string"
        },
        {
          "internalType": "uint256",
          "name": "result",
          "type": "uint256"
        },
        {
          "internalType": "uint256",
          "name": "playerBalance",
          "type": "uint256"
        },
        {
          "internalType": "uint256",
          "name": "games",
          "type": "uint256"
        },
        {
          "internalType": "uint256",
          "name": "moneyBetted",
          "type": "uint256"
        },
        {
          "internalType": "uint256",
          "name": "gamesWon",
          "type": "uint256"
        },
        {
          "internalType": "uint256",
          "name": "moneyWon",
          "type": "uint256"
        }
      ],
      "payable": false,
      "stateMutability": "view",
      "type": "function"
    },
    {
      "constant": false,
      "inputs": [
        {
          "internalType": "uint256",
          "name": "deposit",
          "type": "uint256"
        }
      ],
      "name": "depositFunds",
      "outputs": [],
      "payable": true,
      "stateMutability": "payable",
      "type": "function"
    },
    {
      "constant": false,
      "inputs": [
        {
          "internalType": "uint256",
          "name": "withdraw",
          "type": "uint256"
        }
      ],
      "name": "withdrawFunds",
      "outputs": [],
      "payable": false,
      "stateMutability": "nonpayable",
      "type": "function"
    },
    {
      "constant": false,
      "inputs": [
        {
          "internalType": "uint256",
          "name": "withdraw",
          "type": "uint256"
        }
      ],
      "name": "withdrawFundsPlayer",
      "outputs": [],
      "payable": false,
      "stateMutability": "nonpayable",
      "type": "function"
    },
    {
      "constant": true,
      "inputs": [
        {
          "internalType": "address",
          "name": "infoaddress",
          "type": "address"
        }
      ],
      "name": "getStatistics",
      "outputs": [
        {
          "internalType": "uint256",
          "name": "games",
          "type": "uint256"
        },
        {
          "internalType": "uint256",
          "name": "moneyBetted",
          "type": "uint256"
        },
        {
          "internalType": "uint256",
          "name": "gamesWon",
          "type": "uint256"
        },
        {
          "internalType": "uint256",
          "name": "moneyWon",
          "type": "uint256"
        },
        {
          "internalType": "uint256",
          "name": "playerBalance",
          "type": "uint256"
        }
      ],
      "payable": false,
      "stateMutability": "view",
      "type": "function"
    },
    {
      "constant": true,
      "inputs": [
        {
          "internalType": "uint256",
          "name": "number",
          "type": "uint256"
        }
      ],
      "name": "getAddress",
      "outputs": [
        {
          "internalType": "address",
          "name": "infoaddress",
          "type": "address"
        }
      ],
      "payable": false,
      "stateMutability": "view",
      "type": "function"
    }
  ],
  "bytecode": "0x6080604052336000806101000a81548173ffffffffffffffffffffffffffffffffffffffff021916908373ffffffffffffffffffffffffffffffffffffffff1602179055506103e834101561005357600080fd5b34600660008282540192505081905550600e3390806001815401808255809150509060018203906000526020600020016000909192909190916101000a81548173ffffffffffffffffffffffffffffffffffffffff021916908373ffffffffffffffffffffffffffffffffffffffff16021790555050600f3390806001815401808255809150509060018203906000526020600020016000909192909190916101000a81548173ffffffffffffffffffffffffffffffffffffffff021916908373ffffffffffffffffffffffffffffffffffffffff1602179055505061432b8061013e6000396000f3fe6080604052600436106101095760003560e01c806354965b85116100955780639b4fec61116100645780639b4fec61146105e8578063b69ef8a814610623578063b93f9b0a1461064e578063ba790c3c146106c9578063de292789146106f457610109565b806354965b8514610503578063780301af1461053b5780638da5cb5b146105665780639619367d146105bd57610109565b8063155dd5ee116100dc578063155dd5ee1461021057806327dc297e1461024b57806338bbfa501461031d5780633b76594d146104865780633f08fb8d146104b457610109565b80630e3f48761461010e5780630ec547951461018f57806310189795146101ba57806311a3288b146101e5575b600080fd5b34801561011a57600080fd5b5061015d6004803603602081101561013157600080fd5b81019080803573ffffffffffffffffffffffffffffffffffffffff1690602001909291905050506107bc565b604051808681526020018581526020018481526020018381526020018281526020019550505050505060405180910390f35b34801561019b57600080fd5b506101a461097f565b6040518082815260200191505060405180910390f35b3480156101c657600080fd5b506101cf610985565b6040518082815260200191505060405180910390f35b3480156101f157600080fd5b506101fa61098b565b6040518082815260200191505060405180910390f35b34801561021c57600080fd5b506102496004803603602081101561023357600080fd5b8101908080359060200190929190505050610991565b005b34801561025757600080fd5b5061031b6004803603604081101561026e57600080fd5b81019080803590602001909291908035906020019064010000000081111561029557600080fd5b8201836020820111156102a757600080fd5b803590602001918460018302840111640100000000831117156102c957600080fd5b91908080601f016020809104026020016040519081016040528093929190818152602001838380828437600081840152601f19601f820116905080830192505050505050509192919290505050610a45565b005b34801561032957600080fd5b506104846004803603606081101561034057600080fd5b81019080803590602001909291908035906020019064010000000081111561036757600080fd5b82018360208201111561037957600080fd5b8035906020019184600183028401116401000000008311171561039b57600080fd5b91908080601f016020809104026020016040519081016040528093929190818152602001838380828437600081840152601f19601f820116905080830192505050505050509192919290803590602001906401000000008111156103fe57600080fd5b82018360208201111561041057600080fd5b8035906020019184600183028401116401000000008311171561043257600080fd5b91908080601f016020809104026020016040519081016040528093929190818152602001838380828437600081840152601f19601f820116905080830192505050505050509192919290505050610a88565b005b6104b26004803603602081101561049c57600080fd5b8101908080359060200190929190505050611470565b005b3480156104c057600080fd5b506104ed600480360360208110156104d757600080fd5b81019080803590602001909291905050506114ec565b6040518082815260200191505060405180910390f35b6105396004803603604081101561051957600080fd5b810190808035906020019092919080359060200190929190505050611558565b005b34801561054757600080fd5b50610550611c3a565b6040518082815260200191505060405180910390f35b34801561057257600080fd5b5061057b611c40565b604051808273ffffffffffffffffffffffffffffffffffffffff1673ffffffffffffffffffffffffffffffffffffffff16815260200191505060405180910390f35b3480156105c957600080fd5b506105d2611c65565b6040518082815260200191505060405180910390f35b3480156105f457600080fd5b506106216004803603602081101561060b57600080fd5b8101908080359060200190929190505050611c6b565b005b34801561062f57600080fd5b50610638611d94565b6040518082815260200191505060405180910390f35b34801561065a57600080fd5b506106876004803603602081101561067157600080fd5b8101908080359060200190929190505050611d9a565b604051808273ffffffffffffffffffffffffffffffffffffffff1673ffffffffffffffffffffffffffffffffffffffff16815260200191505060405180910390f35b3480156106d557600080fd5b506106de611e37565b6040518082815260200191505060405180910390f35b34801561070057600080fd5b50610709611e3d565b604051808a815260200189815260200180602001888152602001878152602001868152602001858152602001848152602001838152602001828103825289818151815260200191508051906020019080838360005b8381101561077957808201518184015260208101905061075e565b50505050905090810190601f1680156107a65780820380516001836020036101000a031916815260200191505b509a505050505050505050505060405180910390f35b60008060008060008060009054906101000a900473ffffffffffffffffffffffffffffffffffffffff1673ffffffffffffffffffffffffffffffffffffffff163373ffffffffffffffffffffffffffffffffffffffff161461081d57600080fd5b601060008773ffffffffffffffffffffffffffffffffffffffff1673ffffffffffffffffffffffffffffffffffffffff16815260200190815260200160002060060154601060008873ffffffffffffffffffffffffffffffffffffffff1673ffffffffffffffffffffffffffffffffffffffff16815260200190815260200160002060070154601060008973ffffffffffffffffffffffffffffffffffffffff1673ffffffffffffffffffffffffffffffffffffffff16815260200190815260200160002060080154601060008a73ffffffffffffffffffffffffffffffffffffffff1673ffffffffffffffffffffffffffffffffffffffff16815260200190815260200160002060090154601060008b73ffffffffffffffffffffffffffffffffffffffff1673ffffffffffffffffffffffffffffffffffffffff168152602001908152602001600020600501549450945094509450945091939590929450565b60085481565b600b5481565b600c5481565b6000809054906101000a900473ffffffffffffffffffffffffffffffffffffffff1673ffffffffffffffffffffffffffffffffffffffff163373ffffffffffffffffffffffffffffffffffffffff16146109ea57600080fd5b60648102600654036006819055503373ffffffffffffffffffffffffffffffffffffffff166108fc606483029081150290604051600060405180830381858888f19350505050158015610a41573d6000803e3d6000fd5b5050565b610a84828260006040519080825280601f01601f191660200182016040528015610a7e5781602001600182028038833980820191505090505b50610a88565b5050565b610a90612164565b73ffffffffffffffffffffffffffffffffffffffff163373ffffffffffffffffffffffffffffffffffffffff1614610ac757600080fd5b60006002836040516020018082805190602001908083835b60208310610b025780518252602082019150602081019050602083039250610adf565b6001836020036101000a0380198251168184511680821785525050505050509050019150506040516020818303038152906040528051906020012060001c81610b4757fe5b0690507f4303707e98d7b86c6197a2b41914fc650bc708c7d3111930f2ec8ee7cf1cf394816040518082815260200191505060405180910390a16011600085815260200190815260200160002060010154811415611055576002606460116000878152602001908152602001600020600001540202600654036006819055506002606460116000878152602001908152602001600020600001540202601060006011600088815260200190815260200160002060020160009054906101000a900473ffffffffffffffffffffffffffffffffffffffff1673ffffffffffffffffffffffffffffffffffffffff1673ffffffffffffffffffffffffffffffffffffffff1681526020019081526020016000206005015401601060006011600088815260200190815260200160002060020160009054906101000a900473ffffffffffffffffffffffffffffffffffffffff1673ffffffffffffffffffffffffffffffffffffffff1673ffffffffffffffffffffffffffffffffffffffff168152602001908152602001600020600501819055506040518060400160405280600381526020017f57494e0000000000000000000000000000000000000000000000000000000000815250601060006011600088815260200190815260200160002060020160009054906101000a900473ffffffffffffffffffffffffffffffffffffffff1673ffffffffffffffffffffffffffffffffffffffff1673ffffffffffffffffffffffffffffffffffffffff1681526020019081526020016000206003019080519060200190610d9a929190614127565b5080601060006011600088815260200190815260200160002060020160009054906101000a900473ffffffffffffffffffffffffffffffffffffffff1673ffffffffffffffffffffffffffffffffffffffff1673ffffffffffffffffffffffffffffffffffffffff168152602001908152602001600020600401819055506001601060006011600088815260200190815260200160002060020160009054906101000a900473ffffffffffffffffffffffffffffffffffffffff1673ffffffffffffffffffffffffffffffffffffffff1673ffffffffffffffffffffffffffffffffffffffff1681526020019081526020016000206008015401601060006011600088815260200190815260200160002060020160009054906101000a900473ffffffffffffffffffffffffffffffffffffffff1673ffffffffffffffffffffffffffffffffffffffff1673ffffffffffffffffffffffffffffffffffffffff168152602001908152602001600020600801819055506064601160008681526020019081526020016000206000015402601060006011600088815260200190815260200160002060020160009054906101000a900473ffffffffffffffffffffffffffffffffffffffff1673ffffffffffffffffffffffffffffffffffffffff1673ffffffffffffffffffffffffffffffffffffffff1681526020019081526020016000206009015401601060006011600088815260200190815260200160002060020160009054906101000a900473ffffffffffffffffffffffffffffffffffffffff1673ffffffffffffffffffffffffffffffffffffffff1673ffffffffffffffffffffffffffffffffffffffff16815260200190815260200160002060090181905550600a54600101600a81905550600b54606460116000878152602001908152602001600020600001540201600b81905550611195565b6040518060400160405280600481526020017f4c4f534500000000000000000000000000000000000000000000000000000000815250601060006011600088815260200190815260200160002060020160009054906101000a900473ffffffffffffffffffffffffffffffffffffffff1673ffffffffffffffffffffffffffffffffffffffff1673ffffffffffffffffffffffffffffffffffffffff1681526020019081526020016000206003019080519060200190611116929190614127565b5080601060006011600088815260200190815260200160002060020160009054906101000a900473ffffffffffffffffffffffffffffffffffffffff1673ffffffffffffffffffffffffffffffffffffffff1673ffffffffffffffffffffffffffffffffffffffff168152602001908152602001600020600401819055505b6001601060006011600088815260200190815260200160002060020160009054906101000a900473ffffffffffffffffffffffffffffffffffffffff1673ffffffffffffffffffffffffffffffffffffffff1673ffffffffffffffffffffffffffffffffffffffff1681526020019081526020016000206006015401601060006011600088815260200190815260200160002060020160009054906101000a900473ffffffffffffffffffffffffffffffffffffffff1673ffffffffffffffffffffffffffffffffffffffff1673ffffffffffffffffffffffffffffffffffffffff168152602001908152602001600020600601819055506064601160008681526020019081526020016000206000015402601060006011600088815260200190815260200160002060020160009054906101000a900473ffffffffffffffffffffffffffffffffffffffff1673ffffffffffffffffffffffffffffffffffffffff1673ffffffffffffffffffffffffffffffffffffffff1681526020019081526020016000206007015401601060006011600088815260200190815260200160002060020160009054906101000a900473ffffffffffffffffffffffffffffffffffffffff1673ffffffffffffffffffffffffffffffffffffffff1673ffffffffffffffffffffffffffffffffffffffff168152602001908152602001600020600701819055506001600e80549050036008819055506009546011600086815260200190815260200160002060000154016009819055506001600f8054905003600c819055506000601260006011600088815260200190815260200160002060020160009054906101000a900473ffffffffffffffffffffffffffffffffffffffff1673ffffffffffffffffffffffffffffffffffffffff1673ffffffffffffffffffffffffffffffffffffffff16815260200190815260200160002060006101000a81548160ff02191690831515021790555050505050565b6000809054906101000a900473ffffffffffffffffffffffffffffffffffffffff1673ffffffffffffffffffffffffffffffffffffffff163373ffffffffffffffffffffffffffffffffffffffff16146114c957600080fd5b60648102803410156114da57600080fd5b60648202600654016006819055505050565b60008060009054906101000a900473ffffffffffffffffffffffffffffffffffffffff1673ffffffffffffffffffffffffffffffffffffffff163373ffffffffffffffffffffffffffffffffffffffff161461154757600080fd5b816007819055506007549050919050565b6064601060003373ffffffffffffffffffffffffffffffffffffffff1673ffffffffffffffffffffffffffffffffffffffff1681526020019081526020016000206000015402803410156115ab57600080fd5b60001515601260003373ffffffffffffffffffffffffffffffffffffffff1673ffffffffffffffffffffffffffffffffffffffff16815260200190815260200160002060009054906101000a900460ff1615151461160857600080fd5b6001601260003373ffffffffffffffffffffffffffffffffffffffff1673ffffffffffffffffffffffffffffffffffffffff16815260200190815260200160002060006101000a81548160ff021916908315150217905550346006600082825401925050819055506116786141a7565b838160000181815250508281602001818152505033816040019073ffffffffffffffffffffffffffffffffffffffff16908173ffffffffffffffffffffffffffffffffffffffff1681525050601060003373ffffffffffffffffffffffffffffffffffffffff1673ffffffffffffffffffffffffffffffffffffffff168152602001908152602001600020600501548160a0018181525050601060003373ffffffffffffffffffffffffffffffffffffffff1673ffffffffffffffffffffffffffffffffffffffff168152602001908152602001600020600601548160c0018181525050601060003373ffffffffffffffffffffffffffffffffffffffff1673ffffffffffffffffffffffffffffffffffffffff168152602001908152602001600020600701548160e0018181525050601060003373ffffffffffffffffffffffffffffffffffffffff1673ffffffffffffffffffffffffffffffffffffffff1681526020019081526020016000206008015481610100018181525050601060003373ffffffffffffffffffffffffffffffffffffffff1673ffffffffffffffffffffffffffffffffffffffff1681526020019081526020016000206009015481610120018181525050600e3390806001815401808255809150509060018203906000526020600020016000909192909190916101000a81548173ffffffffffffffffffffffffffffffffffffffff021916908373ffffffffffffffffffffffffffffffffffffffff1602179055505060008090506000809050600091505b600f8054905082101561194357600f82815481106118d157fe5b9060005260206000200160009054906101000a900473ffffffffffffffffffffffffffffffffffffffff1673ffffffffffffffffffffffffffffffffffffffff163373ffffffffffffffffffffffffffffffffffffffff161415611936576001810190505b81806001019250506118b7565b60018110156119b357600f3390806001815401808255809150509060018203906000526020600020016000909192909190916101000a81548173ffffffffffffffffffffffffffffffffffffffff021916908373ffffffffffffffffffffffffffffffffffffffff160217905550505b6119bc83612484565b6064600754026064601060003373ffffffffffffffffffffffffffffffffffffffff1673ffffffffffffffffffffffffffffffffffffffff16815260200190815260200160002060000154021015611a7c576040517f08c379a00000000000000000000000000000000000000000000000000000000081526004018080602001828103825260158152602001807f42657420756e646572206d696e696d756d20626574000000000000000000000081525060200191505060405180910390fd5b600260065481611a8857fe5b046064601060003373ffffffffffffffffffffffffffffffffffffffff1673ffffffffffffffffffffffffffffffffffffffff16815260200190815260200160002060000154021115611b43576040517f08c379a00000000000000000000000000000000000000000000000000000000081526004018080602001828103825260178152602001807f426574206f76657220636f6e74726163742066756e647300000000000000000081525060200191505060405180910390fd5b60008090506000614e209050611b5b82600183612586565b600d819055508460116000600d548152602001908152602001600020600082015181600001556020820151816001015560408201518160020160006101000a81548173ffffffffffffffffffffffffffffffffffffffff021916908373ffffffffffffffffffffffffffffffffffffffff1602179055506060820151816003019080519060200190611bee929190614210565b506080820151816004015560a0820151816005015560c0820151816006015560e08201518160070155610100820151816008015561012082015181600901559050505050505050505050565b600a5481565b6000809054906101000a900473ffffffffffffffffffffffffffffffffffffffff1681565b60075481565b601060003373ffffffffffffffffffffffffffffffffffffffff1673ffffffffffffffffffffffffffffffffffffffff168152602001908152602001600020600501548110611cb957600080fd5b60648102601060003373ffffffffffffffffffffffffffffffffffffffff1673ffffffffffffffffffffffffffffffffffffffff1681526020019081526020016000206005015403601060003373ffffffffffffffffffffffffffffffffffffffff1673ffffffffffffffffffffffffffffffffffffffff168152602001908152602001600020600501819055503373ffffffffffffffffffffffffffffffffffffffff166108fc606483029081150290604051600060405180830381858888f19350505050158015611d90573d6000803e3d6000fd5b5050565b60065481565b60008060009054906101000a900473ffffffffffffffffffffffffffffffffffffffff1673ffffffffffffffffffffffffffffffffffffffff163373ffffffffffffffffffffffffffffffffffffffff1614611df557600080fd5b600f8281548110611e0257fe5b9060005260206000200160009054906101000a900473ffffffffffffffffffffffffffffffffffffffff169050809050919050565b60095481565b60008060606000806000806000806000339050601060008273ffffffffffffffffffffffffffffffffffffffff1673ffffffffffffffffffffffffffffffffffffffff16815260200190815260200160002060000154601060008373ffffffffffffffffffffffffffffffffffffffff1673ffffffffffffffffffffffffffffffffffffffff16815260200190815260200160002060010154601060008473ffffffffffffffffffffffffffffffffffffffff1673ffffffffffffffffffffffffffffffffffffffff168152602001908152602001600020600301601060008573ffffffffffffffffffffffffffffffffffffffff1673ffffffffffffffffffffffffffffffffffffffff16815260200190815260200160002060040154601060008673ffffffffffffffffffffffffffffffffffffffff1673ffffffffffffffffffffffffffffffffffffffff16815260200190815260200160002060050154601060008773ffffffffffffffffffffffffffffffffffffffff1673ffffffffffffffffffffffffffffffffffffffff16815260200190815260200160002060060154601060008873ffffffffffffffffffffffffffffffffffffffff1673ffffffffffffffffffffffffffffffffffffffff16815260200190815260200160002060070154601060008973ffffffffffffffffffffffffffffffffffffffff1673ffffffffffffffffffffffffffffffffffffffff16815260200190815260200160002060080154601060008a73ffffffffffffffffffffffffffffffffffffffff1673ffffffffffffffffffffffffffffffffffffffff16815260200190815260200160002060090154868054600181600116156101000203166002900480601f01602080910402602001604051908101604052809291908181526020018280546001816001161561010002031660029004801561213f5780601f106121145761010080835404028352916020019161213f565b820191906000526020600020905b81548152906001019060200180831161212257829003601f168201915b5050505050965099509950995099509950995099509950995050909192939495969798565b60008073ffffffffffffffffffffffffffffffffffffffff16600260009054906101000a900473ffffffffffffffffffffffffffffffffffffffff1673ffffffffffffffffffffffffffffffffffffffff1614806121ec575060006121ea600260009054906101000a900473ffffffffffffffffffffffffffffffffffffffff16612b21565b145b156121fd576121fb6000612b2c565b505b600260009054906101000a900473ffffffffffffffffffffffffffffffffffffffff1673ffffffffffffffffffffffffffffffffffffffff166338cc48316040518163ffffffff1660e01b8152600401602060405180830381600087803b15801561226757600080fd5b505af115801561227b573d6000803e3d6000fd5b505050506040513d602081101561229157600080fd5b810190808051906020019092919050505073ffffffffffffffffffffffffffffffffffffffff16600160009054906101000a900473ffffffffffffffffffffffffffffffffffffffff1673ffffffffffffffffffffffffffffffffffffffff16146123dc57600260009054906101000a900473ffffffffffffffffffffffffffffffffffffffff1673ffffffffffffffffffffffffffffffffffffffff166338cc48316040518163ffffffff1660e01b8152600401602060405180830381600087803b15801561236057600080fd5b505af1158015612374573d6000803e3d6000fd5b505050506040513d602081101561238a57600080fd5b8101908080519060200190929190505050600160006101000a81548173ffffffffffffffffffffffffffffffffffffffff021916908373ffffffffffffffffffffffffffffffffffffffff1602179055505b600160009054906101000a900473ffffffffffffffffffffffffffffffffffffffff1673ffffffffffffffffffffffffffffffffffffffff1663c281d19e6040518163ffffffff1660e01b815260040160206040518083038186803b15801561244457600080fd5b505afa158015612458573d6000803e3d6000fd5b505050506040513d602081101561246e57600080fd5b8101908080519060200190929190505050905090565b600033905081601060008373ffffffffffffffffffffffffffffffffffffffff1673ffffffffffffffffffffffffffffffffffffffff168152602001908152602001600020600082015181600001556020820151816001015560408201518160020160006101000a81548173ffffffffffffffffffffffffffffffffffffffff021916908373ffffffffffffffffffffffffffffffffffffffff1602179055506060820151816003019080519060200190612540929190614210565b506080820151816004015560a0820151816005015560c0820151816006015560e08201518160070155610100820151816008015561012082015181600901559050505050565b60008083118015612598575060208311155b6125a157600080fd5b600a84029350606060016040519080825280601f01601f1916602001820160405280156125dd5781602001600182028038833980820191505090505b5090508360f81b816000815181106125f157fe5b60200101907effffffffffffffffffffffffffffffffffffffffffffffffffffffffffffff1916908160001a905350606060206040519080825280601f01601f1916602001820160405280156126565781602001600182028038833980820191505090505b509050606060206040519080825280601f01601f19166020018201604052801561268f5781602001600182028038833980820191505090505b509050600061269c612b3d565b905060208352424118600143034018602084015260208252806020830152606060206040519080825280601f01601f1916602001820160405280156126f05781602001600182028038833980820191505090505b509050886020820152606060086040519080825280601f01601f19166020018201604052801561272f5781602001600182028038833980820191505090505b5090506127428260186008846000612e5d565b5061274b614290565b604051806080016040528087815260200188815260200186815260200184815250905060006127b06040518060400160405280600681526020017f72616e646f6d0000000000000000000000000000000000000000000000000000815250838c612ebc565b9050606060086040519080825280601f01601f1916602001820160405280156127e85781602001600182028038833980820191505090505b50905060208401517f0100000000000000000000000000000000000000000000000000000000000000810460278301537e01000000000000000000000000000000000000000000000000000000000000810460268301537d010000000000000000000000000000000000000000000000000000000000810460258301537c0100000000000000000000000000000000000000000000000000000000810460248301537b01000000000000000000000000000000000000000000000000000000810460238301537a010000000000000000000000000000000000000000000000000000810460228301537901000000000000000000000000000000000000000000000000008104602183015378010000000000000000000000000000000000000000000000008104602083015350612b0e82828560016004811061292757fe5b602002015160028760006004811061293b57fe5b60200201516040518082805190602001908083835b602083106129735780518252602082019150602081019050602083039250612950565b6001836020036101000a038019825116818451168082178552505050505050905001915050602060405180830381855afa1580156129b5573d6000803e3d6000fd5b5050506040513d60208110156129ca57600080fd5b8101908080519060200190929190505050876002600481106129e857fe5b60200201516040516020018085805190602001908083835b60208310612a235780518252602082019150602081019050602083039250612a00565b6001836020036101000a03801982511681845116808217855250505050505090500184805190602001908083835b60208310612a745780518252602082019150602081019050602083039250612a51565b6001836020036101000a03801982511681845116808217855250505050505090500183815260200182805190602001908083835b60208310612acb5780518252602082019150602081019050602083039250612aa8565b6001836020036101000a0380198251168184511680821785525050505050509050019450505050506040516020818303038152906040528051906020012061322b565b8199505050505050505050509392505050565b6000813b9050919050565b6000612b36613247565b9050919050565b60008073ffffffffffffffffffffffffffffffffffffffff16600260009054906101000a900473ffffffffffffffffffffffffffffffffffffffff1673ffffffffffffffffffffffffffffffffffffffff161480612bc557506000612bc3600260009054906101000a900473ffffffffffffffffffffffffffffffffffffffff16612b21565b145b15612bd657612bd46000612b2c565b505b600260009054906101000a900473ffffffffffffffffffffffffffffffffffffffff1673ffffffffffffffffffffffffffffffffffffffff166338cc48316040518163ffffffff1660e01b8152600401602060405180830381600087803b158015612c4057600080fd5b505af1158015612c54573d6000803e3d6000fd5b505050506040513d6020811015612c6a57600080fd5b810190808051906020019092919050505073ffffffffffffffffffffffffffffffffffffffff16600160009054906101000a900473ffffffffffffffffffffffffffffffffffffffff1673ffffffffffffffffffffffffffffffffffffffff1614612db557600260009054906101000a900473ffffffffffffffffffffffffffffffffffffffff1673ffffffffffffffffffffffffffffffffffffffff166338cc48316040518163ffffffff1660e01b8152600401602060405180830381600087803b158015612d3957600080fd5b505af1158015612d4d573d6000803e3d6000fd5b505050506040513d6020811015612d6357600080fd5b8101908080519060200190929190505050600160006101000a81548173ffffffffffffffffffffffffffffffffffffffff021916908373ffffffffffffffffffffffffffffffffffffffff1602179055505b600160009054906101000a900473ffffffffffffffffffffffffffffffffffffffff1673ffffffffffffffffffffffffffffffffffffffff1663abaa5f3e6040518163ffffffff1660e01b815260040160206040518083038186803b158015612e1d57600080fd5b505afa158015612e31573d6000803e3d6000fd5b505050506040513d6020811015612e4757600080fd5b8101908080519060200190929190505050905090565b6060600082850190508084511015612e7457600080fd5b600086602001905060008460200190505b868860200101821015612ead5781890151808288015250602082019150602081019050612e85565b85935050505095945050505050565b60008073ffffffffffffffffffffffffffffffffffffffff16600260009054906101000a900473ffffffffffffffffffffffffffffffffffffffff1673ffffffffffffffffffffffffffffffffffffffff161480612f4457506000612f42600260009054906101000a900473ffffffffffffffffffffffffffffffffffffffff16612b21565b145b15612f5557612f536000612b2c565b505b600260009054906101000a900473ffffffffffffffffffffffffffffffffffffffff1673ffffffffffffffffffffffffffffffffffffffff166338cc48316040518163ffffffff1660e01b8152600401602060405180830381600087803b158015612fbf57600080fd5b505af1158015612fd3573d6000803e3d6000fd5b505050506040513d6020811015612fe957600080fd5b810190808051906020019092919050505073ffffffffffffffffffffffffffffffffffffffff16600160009054906101000a900473ffffffffffffffffffffffffffffffffffffffff1673ffffffffffffffffffffffffffffffffffffffff161461313457600260009054906101000a900473ffffffffffffffffffffffffffffffffffffffff1673ffffffffffffffffffffffffffffffffffffffff166338cc48316040518163ffffffff1660e01b8152600401602060405180830381600087803b1580156130b857600080fd5b505af11580156130cc573d6000803e3d6000fd5b505050506040513d60208110156130e257600080fd5b8101908080519060200190929190505050600160006101000a81548173ffffffffffffffffffffffffffffffffffffffff021916908373ffffffffffffffffffffffffffffffffffffffff1602179055505b6060600460405190808252806020026020018201604052801561316b57816020015b60608152602001906001900390816131565790505b5090508360006004811061317b57fe5b60200201518160008151811061318d57fe5b6020026020010181905250836001600481106131a557fe5b6020020151816001815181106131b757fe5b6020026020010181905250836002600481106131cf57fe5b6020020151816002815181106131e157fe5b6020026020010181905250836003600481106131f957fe5b60200201518160038151811061320b57fe5b602002602001018190525061322185828561379e565b9150509392505050565b8060046000848152602001908152602001600020819055505050565b600080613267731d3b2638a7cc9f2cb3d298a3da7a90b67e5506ed612b21565b111561330957731d3b2638a7cc9f2cb3d298a3da7a90b67e5506ed600260006101000a81548173ffffffffffffffffffffffffffffffffffffffff021916908373ffffffffffffffffffffffffffffffffffffffff1602179055506133006040518060400160405280600b81526020017f6574685f6d61696e6e6574000000000000000000000000000000000000000000815250613d04565b6001905061379b565b600061332873c03a2615d5efaf5f49f60b7bb6583eaec212fdf1612b21565b11156133ca5773c03a2615d5efaf5f49f60b7bb6583eaec212fdf1600260006101000a81548173ffffffffffffffffffffffffffffffffffffffff021916908373ffffffffffffffffffffffffffffffffffffffff1602179055506133c16040518060400160405280600c81526020017f6574685f726f707374656e330000000000000000000000000000000000000000815250613d04565b6001905061379b565b60006133e973b7a07bcf2ba2f2703b24c0691b5278999c59ac7e612b21565b111561348b5773b7a07bcf2ba2f2703b24c0691b5278999c59ac7e600260006101000a81548173ffffffffffffffffffffffffffffffffffffffff021916908373ffffffffffffffffffffffffffffffffffffffff1602179055506134826040518060400160405280600981526020017f6574685f6b6f76616e0000000000000000000000000000000000000000000000815250613d04565b6001905061379b565b60006134aa73146500cfd35b22e4a392fe0adc06de1a1368ed48612b21565b111561354c5773146500cfd35b22e4a392fe0adc06de1a1368ed48600260006101000a81548173ffffffffffffffffffffffffffffffffffffffff021916908373ffffffffffffffffffffffffffffffffffffffff1602179055506135436040518060400160405280600b81526020017f6574685f72696e6b656279000000000000000000000000000000000000000000815250613d04565b6001905061379b565b600061356b73a2998efd205fb9d4b4963afb70778d6354ad3a41612b21565b111561360d5773a2998efd205fb9d4b4963afb70778d6354ad3a41600260006101000a81548173ffffffffffffffffffffffffffffffffffffffff021916908373ffffffffffffffffffffffffffffffffffffffff1602179055506136046040518060400160405280600a81526020017f6574685f676f65726c6900000000000000000000000000000000000000000000815250613d04565b6001905061379b565b600061362c736f485c8bf6fc43ea212e93bbf8ce046c7f1cb475612b21565b111561369057736f485c8bf6fc43ea212e93bbf8ce046c7f1cb475600260006101000a81548173ffffffffffffffffffffffffffffffffffffffff021916908373ffffffffffffffffffffffffffffffffffffffff1602179055506001905061379b565b60006136af7320e12a1f859b3feae5fb2a0a32c18f5a65555bbf612b21565b1115613713577320e12a1f859b3feae5fb2a0a32c18f5a65555bbf600260006101000a81548173ffffffffffffffffffffffffffffffffffffffff021916908373ffffffffffffffffffffffffffffffffffffffff1602179055506001905061379b565b60006137327351efaf4c8b3c9afbd5ab9f4bbc82784ab6ef8faa612b21565b1115613796577351efaf4c8b3c9afbd5ab9f4bbc82784ab6ef8faa600260006101000a81548173ffffffffffffffffffffffffffffffffffffffff021916908373ffffffffffffffffffffffffffffffffffffffff1602179055506001905061379b565b600090505b90565b60008073ffffffffffffffffffffffffffffffffffffffff16600260009054906101000a900473ffffffffffffffffffffffffffffffffffffffff1673ffffffffffffffffffffffffffffffffffffffff16148061382657506000613824600260009054906101000a900473ffffffffffffffffffffffffffffffffffffffff16612b21565b145b15613837576138356000612b2c565b505b600260009054906101000a900473ffffffffffffffffffffffffffffffffffffffff1673ffffffffffffffffffffffffffffffffffffffff166338cc48316040518163ffffffff1660e01b8152600401602060405180830381600087803b1580156138a157600080fd5b505af11580156138b5573d6000803e3d6000fd5b505050506040513d60208110156138cb57600080fd5b810190808051906020019092919050505073ffffffffffffffffffffffffffffffffffffffff16600160009054906101000a900473ffffffffffffffffffffffffffffffffffffffff1673ffffffffffffffffffffffffffffffffffffffff1614613a1657600260009054906101000a900473ffffffffffffffffffffffffffffffffffffffff1673ffffffffffffffffffffffffffffffffffffffff166338cc48316040518163ffffffff1660e01b8152600401602060405180830381600087803b15801561399a57600080fd5b505af11580156139ae573d6000803e3d6000fd5b505050506040513d60208110156139c457600080fd5b8101908080519060200190929190505050600160006101000a81548173ffffffffffffffffffffffffffffffffffffffff021916908373ffffffffffffffffffffffffffffffffffffffff1602179055505b6000600160009054906101000a900473ffffffffffffffffffffffffffffffffffffffff1673ffffffffffffffffffffffffffffffffffffffff16632ef3accc86856040518363ffffffff1660e01b81526004018080602001838152602001828103825284818151815260200191508051906020019080838360005b83811015613aad578082015181840152602081019050613a92565b50505050905090810190601f168015613ada5780820380516001836020036101000a031916815260200191505b509350505050602060405180830381600087803b158015613afa57600080fd5b505af1158015613b0e573d6000803e3d6000fd5b505050506040513d6020811015613b2457600080fd5b81019080805190602001909291905050509050823a02670de0b6b3a764000001811115613b57576000801b915050613cfd565b6060613b6285613d1e565b9050600160009054906101000a900473ffffffffffffffffffffffffffffffffffffffff1673ffffffffffffffffffffffffffffffffffffffff1663c55c1cb68360008985896040518663ffffffff1660e01b8152600401808581526020018060200180602001848152602001838103835286818151815260200191508051906020019080838360005b83811015613c07578082015181840152602081019050613bec565b50505050905090810190601f168015613c345780820380516001836020036101000a031916815260200191505b50838103825285818151815260200191508051906020019080838360005b83811015613c6d578082015181840152602081019050613c52565b50505050905090810190601f168015613c9a5780820380516001836020036101000a031916815260200191505b5096505050505050506020604051808303818588803b158015613cbc57600080fd5b505af1158015613cd0573d6000803e3d6000fd5b50505050506040513d6020811015613ce757600080fd5b8101908080519060200190929190505050925050505b9392505050565b8060039080519060200190613d1a929190614127565b5050565b6060613d28613d9e565b613d306142b7565b613d3c81610400613daa565b613d4581613df4565b60008090505b8351811015613d8757613d7a848281518110613d6357fe5b602002602001015183613e0290919063ffffffff16565b8080600101915050613d4b565b50613d9181613e27565b8060000151915050919050565b60405180590338823950565b6000819050600060208281613dbb57fe5b0614613dd45760208181613dcb57fe5b06602003810190505b808360200181815250506040518084526000815281810160405250505050565b613dff816004613e35565b50565b613e0f8260028351613e56565b613e228183613f9690919063ffffffff16565b505050565b613e32816007613e35565b50565b613e52601f60058360ff16901b178361404190919063ffffffff16565b5050565b60178111613e8257613e7d8160058460ff16901b60ff16178461404190919063ffffffff16565b613f91565b60ff8111613ec357613ea7601860058460ff16901b178461404190919063ffffffff16565b613ebd816001856140819092919063ffffffff16565b50613f90565b61ffff8111613f0557613ee9601960058460ff16901b178461404190919063ffffffff16565b613eff816002856140819092919063ffffffff16565b50613f8f565b63ffffffff8111613f4957613f2d601a60058460ff16901b178461404190919063ffffffff16565b613f43816004856140819092919063ffffffff16565b50613f8e565b67ffffffffffffffff8111613f8d57613f75601b60058460ff16901b178461404190919063ffffffff16565b613f8b816008856140819092919063ffffffff16565b505b5b5b5b5b505050565b613f9e6142b7565b82602001518360000151518351011115613fce57613fcd836002613fc7866020015186516140e8565b02614104565b5b60008060008451905085518051602081830101945086518101825260208701935050505b602081106140155781518352602083019250602082019150602081039050613ff2565b60006001826020036101000a039050801983511681855116818117865250508694505050505092915050565b8160200151600183600001515101111561406757614066826002846020015102614104565b5b815180516020818301018381536001820183525050505050565b6140896142b7565b8360200151846000015151830111156140b7576140b68460026140b08760200151866140e8565b02614104565b5b60006001836101000a0390508451805184818301018684198251161781528582018352505050849150509392505050565b6000818311156140fa578290506140fe565b8190505b92915050565b6060826000015190506141178383613daa565b6141218382613f96565b50505050565b828054600181600116156101000203166002900490600052602060002090601f016020900481019282601f1061416857805160ff1916838001178555614196565b82800160010185558215614196579182015b8281111561419557825182559160200191906001019061417a565b5b5090506141a391906142d1565b5090565b6040518061014001604052806000815260200160008152602001600073ffffffffffffffffffffffffffffffffffffffff168152602001606081526020016000815260200160008152602001600081526020016000815260200160008152602001600081525090565b828054600181600116156101000203166002900490600052602060002090601f016020900481019282601f1061425157805160ff191683800117855561427f565b8280016001018555821561427f579182015b8281111561427e578251825591602001919060010190614263565b5b50905061428c91906142d1565b5090565b60405180608001604052806004905b606081526020019060019003908161429f5790505090565b604051806040016040528060608152602001600081525090565b6142f391905b808211156142ef5760008160009055506001016142d7565b5090565b9056fea265627a7a723158205b91ae7ef2577749769e6f3b0015b38de89da8f4c20a09370a2be3ada822dce664736f6c63430005100032",
  "source": "import\"./Ownable.sol\";\r\nimport\"./provableAPI.sol\";\r\n\r\npragma solidity 0.5.16;\r\n\r\ncontract coin is Ownable, usingProvable{\r\n\r\n   struct player {\r\n     uint amount;                          // amount the player want to bet in ether\r\n     uint bet;                             // what the player want to bet: 0 or 1\r\n     address payable playerAddress;        // address of the player\r\n     string message;                       // message after flip: WIN or LOSE\r\n     uint result;                          // result of the coin flip returned from provable\r\n\r\n     uint playerBalance;\r\n\r\n     uint games;\r\n     uint moneyBetted;\r\n     uint gamesWon;\r\n     uint moneyWon;\r\n   }\r\n\r\n   uint public balance;                                    // updated balance of the contract\r\n   uint public minBet;                                     // minimum bet set by the owner\r\n   uint public TotGames;\r\n   uint public TotMoneyBetted;\r\n   uint public TotGamesWon;\r\n   uint public TotMoneyWon;\r\n   uint public TotUniquePlayers;\r\n\r\n   uint256 constant NUM_RANDOM_BYTES_REQUESTED = 1;\r\n   bytes32 queryId;\r\n\r\n   event logNewProvableQuery(string description);\r\n   event generateRandomNumber(uint256 randomNumber);\r\n\r\n   address[] private addresses;\r\n   address[] private addressesFilter;\r\n\r\n   modifier costs(uint cost){\r\n       require(msg.value >= cost);\r\n       _;\r\n   }\r\n\r\n// owner send money to the contract at the moment of deployment\r\n   constructor() public payable{\r\n       require(msg.value >= 1000);\r\n       balance += msg.value;\r\n       addresses.push(msg.sender);\r\n       addressesFilter.push(msg.sender);\r\n   }\r\n\r\n   function minimumBet(uint minimum) public onlyOwner returns(uint){\r\n      minBet = minimum;\r\n      return minBet;\r\n   }\r\n\r\n\r\n   mapping (address => player) private players;  // link player to his address\r\n   mapping (bytes32 => player) private playerId; // link player to his queryId\r\n   mapping (address => bool) private waiting;    // link player to his waiting status: true or false\r\n\r\n\r\n\r\n// player set his bet (0 or 1), his bet amount and send that amount to the contract\r\n   function setBet(uint amount, uint bet) public payable costs( (players[msg.sender].amount)*100 ){\r\n\r\n       require(waiting[msg.sender] == false);  // player which is waiting for bet result can't bet before to know the result\r\n\r\n       waiting[msg.sender] = true;  // once th player set the bet his waiting status is set to true\r\n\r\n       balance += msg.value;\r\n\r\n       player memory newPlayer;\r\n       newPlayer.amount = amount;\r\n       newPlayer.bet = bet;\r\n       newPlayer.playerAddress = msg.sender;\r\n\r\n       newPlayer.playerBalance = players[msg.sender].playerBalance;\r\n       newPlayer.games = players[msg.sender].games;\r\n       newPlayer.moneyBetted = players[msg.sender].moneyBetted;\r\n       newPlayer.gamesWon = players[msg.sender].gamesWon;\r\n       newPlayer.moneyWon = players[msg.sender].moneyWon;\r\n\r\n       addresses.push(msg.sender);\r\n\r\n       uint i = 0;\r\n       uint counter = 0;\r\n\r\n       for(i=0; i<addressesFilter.length; i++){\r\n\r\n           if(msg.sender == addressesFilter[i]){\r\n\r\n           counter = counter + 1;\r\n\r\n           }\r\n       }\r\n\r\n       if(counter < 1){\r\n\r\n           addressesFilter.push(msg.sender);\r\n           }\r\n\r\n       insertPlayer(newPlayer);   // players[msg.sender] = newPlayer\r\n\r\n       require((players[msg.sender].amount)*100 >= minBet*100, \"Bet under minimum bet\");\r\n// require that the amount bet is lower than half balance\r\n       require((players[msg.sender].amount)*100 <= balance/2, \"Bet over contract funds\");\r\n\r\n\r\n       uint256 QUERY_EXECUTION_DELAY = 0;\r\n       uint256 GAS_FOR_CALLBACK = 20000;\r\n       queryId = provable_newRandomDSQuery(\r\n       QUERY_EXECUTION_DELAY,\r\n       NUM_RANDOM_BYTES_REQUESTED,\r\n       GAS_FOR_CALLBACK\r\n       );\r\n\r\n       playerId[queryId] = newPlayer;\r\n   }\r\n\r\n\r\n   function __callback(bytes32 _queryId, string memory _result, bytes memory proof) public {\r\n       require(msg.sender == provable_cbAddress()); //l'address deve essere quello dell'oracle\r\n\r\n       uint256 randomNumber = uint256(keccak256(abi.encodePacked(_result))) % 2;\r\n\r\n       emit generateRandomNumber(randomNumber);\r\n\r\n       if(randomNumber == (playerId[_queryId].bet)){\r\n\r\n       balance = balance - (playerId[_queryId].amount)*100*2;\r\n\r\n       players[playerId[_queryId].playerAddress].playerBalance = players[playerId[_queryId].playerAddress].playerBalance + ( (playerId[_queryId].amount)*100*2 );\r\n\r\n       players[playerId[_queryId].playerAddress].message = \"WIN\";\r\n       players[playerId[_queryId].playerAddress].result = randomNumber;\r\n\r\n       players[playerId[_queryId].playerAddress].gamesWon = players[playerId[_queryId].playerAddress].gamesWon + 1;\r\n       players[playerId[_queryId].playerAddress].moneyWon = players[playerId[_queryId].playerAddress].moneyWon + (playerId[_queryId].amount)*100;\r\n\r\n      TotGamesWon = 1 + TotGamesWon;\r\n      TotMoneyWon = (playerId[_queryId].amount)*100 + TotMoneyWon;\r\n\r\n       }\r\n           else{\r\n\r\n           players[playerId[_queryId].playerAddress].message = \"LOSE\";\r\n           players[playerId[_queryId].playerAddress].result = randomNumber;\r\n           }\r\n\r\n\r\n       players[playerId[_queryId].playerAddress].games = players[playerId[_queryId].playerAddress].games + 1;\r\n       players[playerId[_queryId].playerAddress].moneyBetted = players[playerId[_queryId].playerAddress].moneyBetted + (playerId[_queryId].amount)*100;\r\n       //maxBet = balance/2;\r\n\r\n\r\n       TotGames = addresses.length -1;\r\n       TotMoneyBetted = playerId[_queryId].amount + TotMoneyBetted;\r\n       TotUniquePlayers = addressesFilter.length -1;\r\n\r\n   waiting[playerId[_queryId].playerAddress] = false;\r\n   }\r\n\r\n\r\n\r\n\r\n\r\nfunction getResult() public view returns(uint amount, uint bet, string memory message, uint result, uint playerBalance, uint games, uint moneyBetted, uint gamesWon, uint moneyWon){\r\n        address creator = msg.sender;\r\n\r\n        return (players[creator].amount, players[creator].bet, players[creator].message, players[creator].result, players[creator].playerBalance, players[creator].games, players[creator].moneyBetted, players[creator].gamesWon, players[creator].moneyWon );\r\n    }\r\n\r\n   function depositFunds(uint deposit) public payable onlyOwner costs( deposit*100 ){\r\n\r\n   balance = balance + deposit*100;\r\n\r\n}\r\n\r\n\r\n\r\n\r\n// only owner can withdraw money\r\n   function withdrawFunds(uint withdraw) public onlyOwner {\r\n\r\n      balance = balance - withdraw*100;\r\n      msg.sender.transfer(withdraw*100);\r\n  }\r\n\r\n\r\n  function withdrawFundsPlayer(uint withdraw) public {\r\n      require(withdraw<players[msg.sender].playerBalance);\r\n\r\n      players[msg.sender].playerBalance = players[msg.sender].playerBalance - (withdraw*100);\r\n      msg.sender.transfer(withdraw*100);\r\n\r\n  }\r\n\r\n\r\n function insertPlayer(player memory newPlayer) private {\r\n       address creator = msg.sender;\r\n       players[creator] = newPlayer;\r\n       }\r\n\r\n\r\n       function getStatistics(address infoaddress) public view onlyOwner returns(uint games, uint moneyBetted, uint gamesWon, uint moneyWon, uint playerBalance){\r\n\r\n\r\n        return (players[infoaddress].games, players[infoaddress].moneyBetted, players[infoaddress].gamesWon, players[infoaddress].moneyWon, players[infoaddress].playerBalance );\r\n    }\r\n\r\n    function getAddress(uint number) public view onlyOwner returns(address infoaddress){\r\n\r\n        infoaddress = addressesFilter[number];\r\n\r\n        return (infoaddress);\r\n    }\r\n\r\n\r\n}\r\n",
  "sourcePath": "C:\\Users\\enrico\\Desktop\\coding\\truffle\\coin_contract1\\contracts\\coin.sol",
  "compiler": {
    "name": "solc",
    "version": "0.5.16+commit.9c3226ce.Emscripten.clang"
  },
  "schemaVersion": "3.0.23",
  "updatedAt": "2021-01-26T11:45:13.342Z",
  "networkType": "ethereum",
  "devdoc": {
    "methods": {
      "__callback(bytes32,string)": {
        "details": "The following `__callback` functions are just placeholders ideally     meant to be defined in child contract when proofs are used.     The function bodies simply silence compiler warnings."
      }
    }
  },
  "userdoc": {
    "methods": {}
  }
}