{
  "contractName": "coin",
  "abi": [
    {
      "inputs": [],
      "payable": true,
      "stateMutability": "payable",
      "type": "constructor"
    },
    {
      "anonymous": false,
      "inputs": [
        {
          "indexed": false,
          "internalType": "uint256",
          "name": "randomNumber",
          "type": "uint256"
        }
      ],
      "name": "generateRandomNumber",
      "type": "event"
    },
    {
      "anonymous": false,
      "inputs": [
        {
          "indexed": false,
          "internalType": "string",
          "name": "description",
          "type": "string"
        }
      ],
      "name": "logNewProvableQuery",
      "type": "event"
    },
    {
      "constant": true,
      "inputs": [],
      "name": "TotGames",
      "outputs": [
        {
          "internalType": "uint256",
          "name": "",
          "type": "uint256"
        }
      ],
      "payable": false,
      "stateMutability": "view",
      "type": "function"
    },
    {
      "constant": true,
      "inputs": [],
      "name": "TotGamesWon",
      "outputs": [
        {
          "internalType": "uint256",
          "name": "",
          "type": "uint256"
        }
      ],
      "payable": false,
      "stateMutability": "view",
      "type": "function"
    },
    {
      "constant": true,
      "inputs": [],
      "name": "TotMoneyBetted",
      "outputs": [
        {
          "internalType": "uint256",
          "name": "",
          "type": "uint256"
        }
      ],
      "payable": false,
      "stateMutability": "view",
      "type": "function"
    },
    {
      "constant": true,
      "inputs": [],
      "name": "TotMoneyWon",
      "outputs": [
        {
          "internalType": "uint256",
          "name": "",
          "type": "uint256"
        }
      ],
      "payable": false,
      "stateMutability": "view",
      "type": "function"
    },
    {
      "constant": true,
      "inputs": [],
      "name": "TotUniquePlayers",
      "outputs": [
        {
          "internalType": "uint256",
          "name": "",
          "type": "uint256"
        }
      ],
      "payable": false,
      "stateMutability": "view",
      "type": "function"
    },
    {
      "constant": true,
      "inputs": [],
      "name": "balance",
      "outputs": [
        {
          "internalType": "uint256",
          "name": "",
          "type": "uint256"
        }
      ],
      "payable": false,
      "stateMutability": "view",
      "type": "function"
    },
    {
      "constant": true,
      "inputs": [],
      "name": "hide",
      "outputs": [
        {
          "internalType": "uint256",
          "name": "",
          "type": "uint256"
        }
      ],
      "payable": false,
      "stateMutability": "view",
      "type": "function"
    },
    {
      "constant": true,
      "inputs": [],
      "name": "minBet",
      "outputs": [
        {
          "internalType": "uint256",
          "name": "",
          "type": "uint256"
        }
      ],
      "payable": false,
      "stateMutability": "view",
      "type": "function"
    },
    {
      "constant": true,
      "inputs": [],
      "name": "owner",
      "outputs": [
        {
          "internalType": "address",
          "name": "",
          "type": "address"
        }
      ],
      "payable": false,
      "stateMutability": "view",
      "type": "function"
    },
    {
      "constant": false,
      "inputs": [],
      "name": "checkOwner",
      "outputs": [
        {
          "internalType": "uint256",
          "name": "",
          "type": "uint256"
        }
      ],
      "payable": false,
      "stateMutability": "nonpayable",
      "type": "function"
    },
    {
      "constant": false,
      "inputs": [
        {
          "internalType": "uint256",
          "name": "minimum",
          "type": "uint256"
        }
      ],
      "name": "minimumBet",
      "outputs": [
        {
          "internalType": "uint256",
          "name": "",
          "type": "uint256"
        }
      ],
      "payable": false,
      "stateMutability": "nonpayable",
      "type": "function"
    },
    {
      "constant": false,
      "inputs": [
        {
          "internalType": "uint256",
          "name": "amount",
          "type": "uint256"
        },
        {
          "internalType": "uint256",
          "name": "bet",
          "type": "uint256"
        }
      ],
      "name": "setBet",
      "outputs": [],
      "payable": true,
      "stateMutability": "payable",
      "type": "function"
    },
    {
      "constant": false,
      "inputs": [
        {
          "internalType": "bytes32",
          "name": "_myid",
          "type": "bytes32"
        },
        {
          "internalType": "string",
          "name": "_result",
          "type": "string"
        }
      ],
      "name": "__callback",
      "outputs": [],
      "payable": false,
      "stateMutability": "nonpayable",
      "type": "function"
    },
    {
      "constant": false,
      "inputs": [
        {
          "internalType": "bytes32",
          "name": "_queryId",
          "type": "bytes32"
        },
        {
          "internalType": "string",
          "name": "_result",
          "type": "string"
        },
        {
          "internalType": "bytes",
          "name": "proof",
          "type": "bytes"
        }
      ],
      "name": "__callback",
      "outputs": [],
      "payable": false,
      "stateMutability": "nonpayable",
      "type": "function"
    },
    {
      "constant": true,
      "inputs": [],
      "name": "getResult",
      "outputs": [
        {
          "internalType": "uint256",
          "name": "amount",
          "type": "uint256"
        },
        {
          "internalType": "uint256",
          "name": "bet",
          "type": "uint256"
        },
        {
          "internalType": "string",
          "name": "message",
          "type": "string"
        },
        {
          "internalType": "uint256",
          "name": "result",
          "type": "uint256"
        },
        {
          "internalType": "uint256",
          "name": "playerBalance",
          "type": "uint256"
        },
        {
          "internalType": "uint256",
          "name": "games",
          "type": "uint256"
        },
        {
          "internalType": "uint256",
          "name": "moneyBetted",
          "type": "uint256"
        },
        {
          "internalType": "uint256",
          "name": "gamesWon",
          "type": "uint256"
        },
        {
          "internalType": "uint256",
          "name": "moneyWon",
          "type": "uint256"
        }
      ],
      "payable": false,
      "stateMutability": "view",
      "type": "function"
    },
    {
      "constant": false,
      "inputs": [
        {
          "internalType": "uint256",
          "name": "deposit",
          "type": "uint256"
        }
      ],
      "name": "depositFunds",
      "outputs": [],
      "payable": true,
      "stateMutability": "payable",
      "type": "function"
    },
    {
      "constant": false,
      "inputs": [
        {
          "internalType": "uint256",
          "name": "withdraw",
          "type": "uint256"
        }
      ],
      "name": "withdrawFunds",
      "outputs": [],
      "payable": false,
      "stateMutability": "nonpayable",
      "type": "function"
    },
    {
      "constant": false,
      "inputs": [
        {
          "internalType": "uint256",
          "name": "withdraw",
          "type": "uint256"
        }
      ],
      "name": "withdrawFundsPlayer",
      "outputs": [],
      "payable": false,
      "stateMutability": "nonpayable",
      "type": "function"
    },
    {
      "constant": true,
      "inputs": [
        {
          "internalType": "address",
          "name": "infoaddress",
          "type": "address"
        }
      ],
      "name": "getStatistics",
      "outputs": [
        {
          "internalType": "uint256",
          "name": "games",
          "type": "uint256"
        },
        {
          "internalType": "uint256",
          "name": "moneyBetted",
          "type": "uint256"
        },
        {
          "internalType": "uint256",
          "name": "gamesWon",
          "type": "uint256"
        },
        {
          "internalType": "uint256",
          "name": "moneyWon",
          "type": "uint256"
        },
        {
          "internalType": "uint256",
          "name": "playerBalance",
          "type": "uint256"
        }
      ],
      "payable": false,
      "stateMutability": "view",
      "type": "function"
    },
    {
      "constant": true,
      "inputs": [
        {
          "internalType": "uint256",
          "name": "number",
          "type": "uint256"
        }
      ],
      "name": "getAddress",
      "outputs": [
        {
          "internalType": "address",
          "name": "infoaddress",
          "type": "address"
        }
      ],
      "payable": false,
      "stateMutability": "view",
      "type": "function"
    }
  ],
  "bytecode": "0x6080604052336000806101000a81548173ffffffffffffffffffffffffffffffffffffffff021916908373ffffffffffffffffffffffffffffffffffffffff16021790555061271034101561005357600080fd5b34600660008282540192505081905550600f3390806001815401808255809150509060018203906000526020600020016000909192909190916101000a81548173ffffffffffffffffffffffffffffffffffffffff021916908373ffffffffffffffffffffffffffffffffffffffff1602179055505060103390806001815401808255809150509060018203906000526020600020016000909192909190916101000a81548173ffffffffffffffffffffffffffffffffffffffff021916908373ffffffffffffffffffffffffffffffffffffffff160217905550506143e68061013e6000396000f3fe60806040526004361061011f5760003560e01c8063780301af116100a0578063b69ef8a811610064578063b69ef8a814610664578063b93f9b0a1461068f578063ba790c3c1461070a578063cdbce03d14610735578063de292789146107605761011f565b8063780301af146105515780638da5cb5b1461057c5780639619367d146105d35780639b4fec61146105fe578063b62a7625146106395761011f565b806327dc297e116100e757806327dc297e1461026157806338bbfa50146103335780633b76594d1461049c5780633f08fb8d146104ca57806354965b85146105195761011f565b80630e3f4876146101245780630ec54795146101a557806310189795146101d057806311a3288b146101fb578063155dd5ee14610226575b600080fd5b34801561013057600080fd5b506101736004803603602081101561014757600080fd5b81019080803573ffffffffffffffffffffffffffffffffffffffff169060200190929190505050610828565b604051808681526020018581526020018481526020018381526020018281526020019550505050505060405180910390f35b3480156101b157600080fd5b506101ba6109eb565b6040518082815260200191505060405180910390f35b3480156101dc57600080fd5b506101e56109f1565b6040518082815260200191505060405180910390f35b34801561020757600080fd5b506102106109f7565b6040518082815260200191505060405180910390f35b34801561023257600080fd5b5061025f6004803603602081101561024957600080fd5b81019080803590602001909291905050506109fd565b005b34801561026d57600080fd5b506103316004803603604081101561028457600080fd5b8101908080359060200190929190803590602001906401000000008111156102ab57600080fd5b8201836020820111156102bd57600080fd5b803590602001918460018302840111640100000000831117156102df57600080fd5b91908080601f016020809104026020016040519081016040528093929190818152602001838380828437600081840152601f19601f820116905080830192505050505050509192919290505050610aab565b005b34801561033f57600080fd5b5061049a6004803603606081101561035657600080fd5b81019080803590602001909291908035906020019064010000000081111561037d57600080fd5b82018360208201111561038f57600080fd5b803590602001918460018302840111640100000000831117156103b157600080fd5b91908080601f016020809104026020016040519081016040528093929190818152602001838380828437600081840152601f19601f8201169050808301925050505050505091929192908035906020019064010000000081111561041457600080fd5b82018360208201111561042657600080fd5b8035906020019184600183028401116401000000008311171561044857600080fd5b91908080601f016020809104026020016040519081016040528093929190818152602001838380828437600081840152601f19601f820116905080830192505050505050509192919290505050610aee565b005b6104c8600480360360208110156104b257600080fd5b81019080803590602001909291905050506114c7565b005b3480156104d657600080fd5b50610503600480360360208110156104ed57600080fd5b810190808035906020019092919050505061153d565b6040518082815260200191505060405180910390f35b61054f6004803603604081101561052f57600080fd5b8101908080359060200190929190803590602001909291905050506115a9565b005b34801561055d57600080fd5b50610566611c80565b6040518082815260200191505060405180910390f35b34801561058857600080fd5b50610591611c86565b604051808273ffffffffffffffffffffffffffffffffffffffff1673ffffffffffffffffffffffffffffffffffffffff16815260200191505060405180910390f35b3480156105df57600080fd5b506105e8611cab565b6040518082815260200191505060405180910390f35b34801561060a57600080fd5b506106376004803603602081101561062157600080fd5b8101908080359060200190929190505050611cb1565b005b34801561064557600080fd5b5061064e611dd4565b6040518082815260200191505060405180910390f35b34801561067057600080fd5b50610679611dda565b6040518082815260200191505060405180910390f35b34801561069b57600080fd5b506106c8600480360360208110156106b257600080fd5b8101908080359060200190929190505050611de0565b604051808273ffffffffffffffffffffffffffffffffffffffff1673ffffffffffffffffffffffffffffffffffffffff16815260200191505060405180910390f35b34801561071657600080fd5b5061071f611e7d565b6040518082815260200191505060405180910390f35b34801561074157600080fd5b5061074a611e83565b6040518082815260200191505060405180910390f35b34801561076c57600080fd5b50610775611ef8565b604051808a815260200189815260200180602001888152602001878152602001868152602001858152602001848152602001838152602001828103825289818151815260200191508051906020019080838360005b838110156107e55780820151818401526020810190506107ca565b50505050905090810190601f1680156108125780820380516001836020036101000a031916815260200191505b509a505050505050505050505060405180910390f35b60008060008060008060009054906101000a900473ffffffffffffffffffffffffffffffffffffffff1673ffffffffffffffffffffffffffffffffffffffff163373ffffffffffffffffffffffffffffffffffffffff161461088957600080fd5b601160008773ffffffffffffffffffffffffffffffffffffffff1673ffffffffffffffffffffffffffffffffffffffff16815260200190815260200160002060060154601160008873ffffffffffffffffffffffffffffffffffffffff1673ffffffffffffffffffffffffffffffffffffffff16815260200190815260200160002060070154601160008973ffffffffffffffffffffffffffffffffffffffff1673ffffffffffffffffffffffffffffffffffffffff16815260200190815260200160002060080154601160008a73ffffffffffffffffffffffffffffffffffffffff1673ffffffffffffffffffffffffffffffffffffffff16815260200190815260200160002060090154601160008b73ffffffffffffffffffffffffffffffffffffffff1673ffffffffffffffffffffffffffffffffffffffff168152602001908152602001600020600501549450945094509450945091939590929450565b60085481565b600b5481565b600c5481565b6000809054906101000a900473ffffffffffffffffffffffffffffffffffffffff1673ffffffffffffffffffffffffffffffffffffffff163373ffffffffffffffffffffffffffffffffffffffff1614610a5657600080fd5b80600654036006819055503373ffffffffffffffffffffffffffffffffffffffff166108fc829081150290604051600060405180830381858888f19350505050158015610aa7573d6000803e3d6000fd5b5050565b610aea828260006040519080825280601f01601f191660200182016040528015610ae45781602001600182028038833980820191505090505b50610aee565b5050565b610af661221f565b73ffffffffffffffffffffffffffffffffffffffff163373ffffffffffffffffffffffffffffffffffffffff1614610b2d57600080fd5b60006002836040516020018082805190602001908083835b60208310610b685780518252602082019150602081019050602083039250610b45565b6001836020036101000a0380198251168184511680821785525050505050509050019150506040516020818303038152906040528051906020012060001c81610bad57fe5b0690507f4303707e98d7b86c6197a2b41914fc650bc708c7d3111930f2ec8ee7cf1cf394816040518082815260200191505060405180910390a160126000858152602001908152602001600020600101548114156110af576002601260008681526020019081526020016000206000015402600654036006819055506002601260008681526020019081526020016000206000015402601160006012600088815260200190815260200160002060020160009054906101000a900473ffffffffffffffffffffffffffffffffffffffff1673ffffffffffffffffffffffffffffffffffffffff1673ffffffffffffffffffffffffffffffffffffffff1681526020019081526020016000206005015401601160006012600088815260200190815260200160002060020160009054906101000a900473ffffffffffffffffffffffffffffffffffffffff1673ffffffffffffffffffffffffffffffffffffffff1673ffffffffffffffffffffffffffffffffffffffff168152602001908152602001600020600501819055506040518060400160405280600381526020017f57494e0000000000000000000000000000000000000000000000000000000000815250601160006012600088815260200190815260200160002060020160009054906101000a900473ffffffffffffffffffffffffffffffffffffffff1673ffffffffffffffffffffffffffffffffffffffff1673ffffffffffffffffffffffffffffffffffffffff1681526020019081526020016000206003019080519060200190610dfa9291906141e2565b5080601160006012600088815260200190815260200160002060020160009054906101000a900473ffffffffffffffffffffffffffffffffffffffff1673ffffffffffffffffffffffffffffffffffffffff1673ffffffffffffffffffffffffffffffffffffffff168152602001908152602001600020600401819055506001601160006012600088815260200190815260200160002060020160009054906101000a900473ffffffffffffffffffffffffffffffffffffffff1673ffffffffffffffffffffffffffffffffffffffff1673ffffffffffffffffffffffffffffffffffffffff1681526020019081526020016000206008015401601160006012600088815260200190815260200160002060020160009054906101000a900473ffffffffffffffffffffffffffffffffffffffff1673ffffffffffffffffffffffffffffffffffffffff1673ffffffffffffffffffffffffffffffffffffffff168152602001908152602001600020600801819055506012600085815260200190815260200160002060000154601160006012600088815260200190815260200160002060020160009054906101000a900473ffffffffffffffffffffffffffffffffffffffff1673ffffffffffffffffffffffffffffffffffffffff1673ffffffffffffffffffffffffffffffffffffffff1681526020019081526020016000206009015401601160006012600088815260200190815260200160002060020160009054906101000a900473ffffffffffffffffffffffffffffffffffffffff1673ffffffffffffffffffffffffffffffffffffffff1673ffffffffffffffffffffffffffffffffffffffff16815260200190815260200160002060090181905550600a54600101600a81905550600b54601260008681526020019081526020016000206000015401600b819055506111ef565b6040518060400160405280600481526020017f4c4f534500000000000000000000000000000000000000000000000000000000815250601160006012600088815260200190815260200160002060020160009054906101000a900473ffffffffffffffffffffffffffffffffffffffff1673ffffffffffffffffffffffffffffffffffffffff1673ffffffffffffffffffffffffffffffffffffffff16815260200190815260200160002060030190805190602001906111709291906141e2565b5080601160006012600088815260200190815260200160002060020160009054906101000a900473ffffffffffffffffffffffffffffffffffffffff1673ffffffffffffffffffffffffffffffffffffffff1673ffffffffffffffffffffffffffffffffffffffff168152602001908152602001600020600401819055505b6001601160006012600088815260200190815260200160002060020160009054906101000a900473ffffffffffffffffffffffffffffffffffffffff1673ffffffffffffffffffffffffffffffffffffffff1673ffffffffffffffffffffffffffffffffffffffff1681526020019081526020016000206006015401601160006012600088815260200190815260200160002060020160009054906101000a900473ffffffffffffffffffffffffffffffffffffffff1673ffffffffffffffffffffffffffffffffffffffff1673ffffffffffffffffffffffffffffffffffffffff168152602001908152602001600020600601819055506012600085815260200190815260200160002060000154601160006012600088815260200190815260200160002060020160009054906101000a900473ffffffffffffffffffffffffffffffffffffffff1673ffffffffffffffffffffffffffffffffffffffff1673ffffffffffffffffffffffffffffffffffffffff1681526020019081526020016000206007015401601160006012600088815260200190815260200160002060020160009054906101000a900473ffffffffffffffffffffffffffffffffffffffff1673ffffffffffffffffffffffffffffffffffffffff1673ffffffffffffffffffffffffffffffffffffffff168152602001908152602001600020600701819055506001600f8054905003600881905550600954601260008681526020019081526020016000206000015401600981905550600160108054905003600c819055506000601360006012600088815260200190815260200160002060020160009054906101000a900473ffffffffffffffffffffffffffffffffffffffff1673ffffffffffffffffffffffffffffffffffffffff1673ffffffffffffffffffffffffffffffffffffffff16815260200190815260200160002060006101000a81548160ff02191690831515021790555050505050565b6000809054906101000a900473ffffffffffffffffffffffffffffffffffffffff1673ffffffffffffffffffffffffffffffffffffffff163373ffffffffffffffffffffffffffffffffffffffff161461152057600080fd5b808034101561152e57600080fd5b81600654016006819055505050565b60008060009054906101000a900473ffffffffffffffffffffffffffffffffffffffff1673ffffffffffffffffffffffffffffffffffffffff163373ffffffffffffffffffffffffffffffffffffffff161461159857600080fd5b816007819055506007549050919050565b601160003373ffffffffffffffffffffffffffffffffffffffff1673ffffffffffffffffffffffffffffffffffffffff16815260200190815260200160002060000154803410156115f957600080fd5b60001515601360003373ffffffffffffffffffffffffffffffffffffffff1673ffffffffffffffffffffffffffffffffffffffff16815260200190815260200160002060009054906101000a900460ff1615151461165657600080fd5b6001601360003373ffffffffffffffffffffffffffffffffffffffff1673ffffffffffffffffffffffffffffffffffffffff16815260200190815260200160002060006101000a81548160ff021916908315150217905550346006600082825401925050819055506116c6614262565b838160000181815250508281602001818152505033816040019073ffffffffffffffffffffffffffffffffffffffff16908173ffffffffffffffffffffffffffffffffffffffff1681525050601160003373ffffffffffffffffffffffffffffffffffffffff1673ffffffffffffffffffffffffffffffffffffffff168152602001908152602001600020600501548160a0018181525050601160003373ffffffffffffffffffffffffffffffffffffffff1673ffffffffffffffffffffffffffffffffffffffff168152602001908152602001600020600601548160c0018181525050601160003373ffffffffffffffffffffffffffffffffffffffff1673ffffffffffffffffffffffffffffffffffffffff168152602001908152602001600020600701548160e0018181525050601160003373ffffffffffffffffffffffffffffffffffffffff1673ffffffffffffffffffffffffffffffffffffffff1681526020019081526020016000206008015481610100018181525050601160003373ffffffffffffffffffffffffffffffffffffffff1673ffffffffffffffffffffffffffffffffffffffff1681526020019081526020016000206009015481610120018181525050600f3390806001815401808255809150509060018203906000526020600020016000909192909190916101000a81548173ffffffffffffffffffffffffffffffffffffffff021916908373ffffffffffffffffffffffffffffffffffffffff1602179055505060008090506000809050600091505b601080549050821015611991576010828154811061191f57fe5b9060005260206000200160009054906101000a900473ffffffffffffffffffffffffffffffffffffffff1673ffffffffffffffffffffffffffffffffffffffff163373ffffffffffffffffffffffffffffffffffffffff161415611984576001810190505b8180600101925050611905565b6001811015611a015760103390806001815401808255809150509060018203906000526020600020016000909192909190916101000a81548173ffffffffffffffffffffffffffffffffffffffff021916908373ffffffffffffffffffffffffffffffffffffffff160217905550505b611a0a8361253f565b600754601160003373ffffffffffffffffffffffffffffffffffffffff1673ffffffffffffffffffffffffffffffffffffffff168152602001908152602001600020600001541015611ac4576040517f08c379a00000000000000000000000000000000000000000000000000000000081526004018080602001828103825260158152602001807f42657420756e646572206d696e696d756d20626574000000000000000000000081525060200191505060405180910390fd5b600260065481611ad057fe5b04601160003373ffffffffffffffffffffffffffffffffffffffff1673ffffffffffffffffffffffffffffffffffffffff168152602001908152602001600020600001541115611b88576040517f08c379a00000000000000000000000000000000000000000000000000000000081526004018080602001828103825260178152602001807f426574206f76657220636f6e74726163742066756e647300000000000000000081525060200191505060405180910390fd5b6000809050600062030d409050611ba182600183612641565b600e819055508460126000600e548152602001908152602001600020600082015181600001556020820151816001015560408201518160020160006101000a81548173ffffffffffffffffffffffffffffffffffffffff021916908373ffffffffffffffffffffffffffffffffffffffff1602179055506060820151816003019080519060200190611c349291906142cb565b506080820151816004015560a0820151816005015560c0820151816006015560e08201518160070155610100820151816008015561012082015181600901559050505050505050505050565b600a5481565b6000809054906101000a900473ffffffffffffffffffffffffffffffffffffffff1681565b60075481565b601160003373ffffffffffffffffffffffffffffffffffffffff1673ffffffffffffffffffffffffffffffffffffffff168152602001908152602001600020600501548110611cff57600080fd5b80601160003373ffffffffffffffffffffffffffffffffffffffff1673ffffffffffffffffffffffffffffffffffffffff1681526020019081526020016000206005015403601160003373ffffffffffffffffffffffffffffffffffffffff1673ffffffffffffffffffffffffffffffffffffffff168152602001908152602001600020600501819055503373ffffffffffffffffffffffffffffffffffffffff166108fc829081150290604051600060405180830381858888f19350505050158015611dd0573d6000803e3d6000fd5b5050565b600d5481565b60065481565b60008060009054906101000a900473ffffffffffffffffffffffffffffffffffffffff1673ffffffffffffffffffffffffffffffffffffffff163373ffffffffffffffffffffffffffffffffffffffff1614611e3b57600080fd5b60108281548110611e4857fe5b9060005260206000200160009054906101000a900473ffffffffffffffffffffffffffffffffffffffff169050809050919050565b60095481565b60008060009054906101000a900473ffffffffffffffffffffffffffffffffffffffff1673ffffffffffffffffffffffffffffffffffffffff163373ffffffffffffffffffffffffffffffffffffffff161415611ee7576001600d81905550611ef0565b6000600d819055505b600d54905090565b60008060606000806000806000806000339050601160008273ffffffffffffffffffffffffffffffffffffffff1673ffffffffffffffffffffffffffffffffffffffff16815260200190815260200160002060000154601160008373ffffffffffffffffffffffffffffffffffffffff1673ffffffffffffffffffffffffffffffffffffffff16815260200190815260200160002060010154601160008473ffffffffffffffffffffffffffffffffffffffff1673ffffffffffffffffffffffffffffffffffffffff168152602001908152602001600020600301601160008573ffffffffffffffffffffffffffffffffffffffff1673ffffffffffffffffffffffffffffffffffffffff16815260200190815260200160002060040154601160008673ffffffffffffffffffffffffffffffffffffffff1673ffffffffffffffffffffffffffffffffffffffff16815260200190815260200160002060050154601160008773ffffffffffffffffffffffffffffffffffffffff1673ffffffffffffffffffffffffffffffffffffffff16815260200190815260200160002060060154601160008873ffffffffffffffffffffffffffffffffffffffff1673ffffffffffffffffffffffffffffffffffffffff16815260200190815260200160002060070154601160008973ffffffffffffffffffffffffffffffffffffffff1673ffffffffffffffffffffffffffffffffffffffff16815260200190815260200160002060080154601160008a73ffffffffffffffffffffffffffffffffffffffff1673ffffffffffffffffffffffffffffffffffffffff16815260200190815260200160002060090154868054600181600116156101000203166002900480601f0160208091040260200160405190810160405280929190818152602001828054600181600116156101000203166002900480156121fa5780601f106121cf576101008083540402835291602001916121fa565b820191906000526020600020905b8154815290600101906020018083116121dd57829003601f168201915b5050505050965099509950995099509950995099509950995050909192939495969798565b60008073ffffffffffffffffffffffffffffffffffffffff16600260009054906101000a900473ffffffffffffffffffffffffffffffffffffffff1673ffffffffffffffffffffffffffffffffffffffff1614806122a7575060006122a5600260009054906101000a900473ffffffffffffffffffffffffffffffffffffffff16612bdc565b145b156122b8576122b66000612be7565b505b600260009054906101000a900473ffffffffffffffffffffffffffffffffffffffff1673ffffffffffffffffffffffffffffffffffffffff166338cc48316040518163ffffffff1660e01b8152600401602060405180830381600087803b15801561232257600080fd5b505af1158015612336573d6000803e3d6000fd5b505050506040513d602081101561234c57600080fd5b810190808051906020019092919050505073ffffffffffffffffffffffffffffffffffffffff16600160009054906101000a900473ffffffffffffffffffffffffffffffffffffffff1673ffffffffffffffffffffffffffffffffffffffff161461249757600260009054906101000a900473ffffffffffffffffffffffffffffffffffffffff1673ffffffffffffffffffffffffffffffffffffffff166338cc48316040518163ffffffff1660e01b8152600401602060405180830381600087803b15801561241b57600080fd5b505af115801561242f573d6000803e3d6000fd5b505050506040513d602081101561244557600080fd5b8101908080519060200190929190505050600160006101000a81548173ffffffffffffffffffffffffffffffffffffffff021916908373ffffffffffffffffffffffffffffffffffffffff1602179055505b600160009054906101000a900473ffffffffffffffffffffffffffffffffffffffff1673ffffffffffffffffffffffffffffffffffffffff1663c281d19e6040518163ffffffff1660e01b815260040160206040518083038186803b1580156124ff57600080fd5b505afa158015612513573d6000803e3d6000fd5b505050506040513d602081101561252957600080fd5b8101908080519060200190929190505050905090565b600033905081601160008373ffffffffffffffffffffffffffffffffffffffff1673ffffffffffffffffffffffffffffffffffffffff168152602001908152602001600020600082015181600001556020820151816001015560408201518160020160006101000a81548173ffffffffffffffffffffffffffffffffffffffff021916908373ffffffffffffffffffffffffffffffffffffffff16021790555060608201518160030190805190602001906125fb9291906142cb565b506080820151816004015560a0820151816005015560c0820151816006015560e08201518160070155610100820151816008015561012082015181600901559050505050565b60008083118015612653575060208311155b61265c57600080fd5b600a84029350606060016040519080825280601f01601f1916602001820160405280156126985781602001600182028038833980820191505090505b5090508360f81b816000815181106126ac57fe5b60200101907effffffffffffffffffffffffffffffffffffffffffffffffffffffffffffff1916908160001a905350606060206040519080825280601f01601f1916602001820160405280156127115781602001600182028038833980820191505090505b509050606060206040519080825280601f01601f19166020018201604052801561274a5781602001600182028038833980820191505090505b5090506000612757612bf8565b905060208352424118600143034018602084015260208252806020830152606060206040519080825280601f01601f1916602001820160405280156127ab5781602001600182028038833980820191505090505b509050886020820152606060086040519080825280601f01601f1916602001820160405280156127ea5781602001600182028038833980820191505090505b5090506127fd8260186008846000612f18565b5061280661434b565b6040518060800160405280878152602001888152602001868152602001848152509050600061286b6040518060400160405280600681526020017f72616e646f6d0000000000000000000000000000000000000000000000000000815250838c612f77565b9050606060086040519080825280601f01601f1916602001820160405280156128a35781602001600182028038833980820191505090505b50905060208401517f0100000000000000000000000000000000000000000000000000000000000000810460278301537e01000000000000000000000000000000000000000000000000000000000000810460268301537d010000000000000000000000000000000000000000000000000000000000810460258301537c0100000000000000000000000000000000000000000000000000000000810460248301537b01000000000000000000000000000000000000000000000000000000810460238301537a010000000000000000000000000000000000000000000000000000810460228301537901000000000000000000000000000000000000000000000000008104602183015378010000000000000000000000000000000000000000000000008104602083015350612bc98282856001600481106129e257fe5b60200201516002876000600481106129f657fe5b60200201516040518082805190602001908083835b60208310612a2e5780518252602082019150602081019050602083039250612a0b565b6001836020036101000a038019825116818451168082178552505050505050905001915050602060405180830381855afa158015612a70573d6000803e3d6000fd5b5050506040513d6020811015612a8557600080fd5b810190808051906020019092919050505087600260048110612aa357fe5b60200201516040516020018085805190602001908083835b60208310612ade5780518252602082019150602081019050602083039250612abb565b6001836020036101000a03801982511681845116808217855250505050505090500184805190602001908083835b60208310612b2f5780518252602082019150602081019050602083039250612b0c565b6001836020036101000a03801982511681845116808217855250505050505090500183815260200182805190602001908083835b60208310612b865780518252602082019150602081019050602083039250612b63565b6001836020036101000a038019825116818451168082178552505050505050905001945050505050604051602081830303815290604052805190602001206132e6565b8199505050505050505050509392505050565b6000813b9050919050565b6000612bf1613302565b9050919050565b60008073ffffffffffffffffffffffffffffffffffffffff16600260009054906101000a900473ffffffffffffffffffffffffffffffffffffffff1673ffffffffffffffffffffffffffffffffffffffff161480612c8057506000612c7e600260009054906101000a900473ffffffffffffffffffffffffffffffffffffffff16612bdc565b145b15612c9157612c8f6000612be7565b505b600260009054906101000a900473ffffffffffffffffffffffffffffffffffffffff1673ffffffffffffffffffffffffffffffffffffffff166338cc48316040518163ffffffff1660e01b8152600401602060405180830381600087803b158015612cfb57600080fd5b505af1158015612d0f573d6000803e3d6000fd5b505050506040513d6020811015612d2557600080fd5b810190808051906020019092919050505073ffffffffffffffffffffffffffffffffffffffff16600160009054906101000a900473ffffffffffffffffffffffffffffffffffffffff1673ffffffffffffffffffffffffffffffffffffffff1614612e7057600260009054906101000a900473ffffffffffffffffffffffffffffffffffffffff1673ffffffffffffffffffffffffffffffffffffffff166338cc48316040518163ffffffff1660e01b8152600401602060405180830381600087803b158015612df457600080fd5b505af1158015612e08573d6000803e3d6000fd5b505050506040513d6020811015612e1e57600080fd5b8101908080519060200190929190505050600160006101000a81548173ffffffffffffffffffffffffffffffffffffffff021916908373ffffffffffffffffffffffffffffffffffffffff1602179055505b600160009054906101000a900473ffffffffffffffffffffffffffffffffffffffff1673ffffffffffffffffffffffffffffffffffffffff1663abaa5f3e6040518163ffffffff1660e01b815260040160206040518083038186803b158015612ed857600080fd5b505afa158015612eec573d6000803e3d6000fd5b505050506040513d6020811015612f0257600080fd5b8101908080519060200190929190505050905090565b6060600082850190508084511015612f2f57600080fd5b600086602001905060008460200190505b868860200101821015612f685781890151808288015250602082019150602081019050612f40565b85935050505095945050505050565b60008073ffffffffffffffffffffffffffffffffffffffff16600260009054906101000a900473ffffffffffffffffffffffffffffffffffffffff1673ffffffffffffffffffffffffffffffffffffffff161480612fff57506000612ffd600260009054906101000a900473ffffffffffffffffffffffffffffffffffffffff16612bdc565b145b156130105761300e6000612be7565b505b600260009054906101000a900473ffffffffffffffffffffffffffffffffffffffff1673ffffffffffffffffffffffffffffffffffffffff166338cc48316040518163ffffffff1660e01b8152600401602060405180830381600087803b15801561307a57600080fd5b505af115801561308e573d6000803e3d6000fd5b505050506040513d60208110156130a457600080fd5b810190808051906020019092919050505073ffffffffffffffffffffffffffffffffffffffff16600160009054906101000a900473ffffffffffffffffffffffffffffffffffffffff1673ffffffffffffffffffffffffffffffffffffffff16146131ef57600260009054906101000a900473ffffffffffffffffffffffffffffffffffffffff1673ffffffffffffffffffffffffffffffffffffffff166338cc48316040518163ffffffff1660e01b8152600401602060405180830381600087803b15801561317357600080fd5b505af1158015613187573d6000803e3d6000fd5b505050506040513d602081101561319d57600080fd5b8101908080519060200190929190505050600160006101000a81548173ffffffffffffffffffffffffffffffffffffffff021916908373ffffffffffffffffffffffffffffffffffffffff1602179055505b6060600460405190808252806020026020018201604052801561322657816020015b60608152602001906001900390816132115790505b5090508360006004811061323657fe5b60200201518160008151811061324857fe5b60200260200101819052508360016004811061326057fe5b60200201518160018151811061327257fe5b60200260200101819052508360026004811061328a57fe5b60200201518160028151811061329c57fe5b6020026020010181905250836003600481106132b457fe5b6020020151816003815181106132c657fe5b60200260200101819052506132dc858285613859565b9150509392505050565b8060046000848152602001908152602001600020819055505050565b600080613322731d3b2638a7cc9f2cb3d298a3da7a90b67e5506ed612bdc565b11156133c457731d3b2638a7cc9f2cb3d298a3da7a90b67e5506ed600260006101000a81548173ffffffffffffffffffffffffffffffffffffffff021916908373ffffffffffffffffffffffffffffffffffffffff1602179055506133bb6040518060400160405280600b81526020017f6574685f6d61696e6e6574000000000000000000000000000000000000000000815250613dbf565b60019050613856565b60006133e373c03a2615d5efaf5f49f60b7bb6583eaec212fdf1612bdc565b11156134855773c03a2615d5efaf5f49f60b7bb6583eaec212fdf1600260006101000a81548173ffffffffffffffffffffffffffffffffffffffff021916908373ffffffffffffffffffffffffffffffffffffffff16021790555061347c6040518060400160405280600c81526020017f6574685f726f707374656e330000000000000000000000000000000000000000815250613dbf565b60019050613856565b60006134a473b7a07bcf2ba2f2703b24c0691b5278999c59ac7e612bdc565b11156135465773b7a07bcf2ba2f2703b24c0691b5278999c59ac7e600260006101000a81548173ffffffffffffffffffffffffffffffffffffffff021916908373ffffffffffffffffffffffffffffffffffffffff16021790555061353d6040518060400160405280600981526020017f6574685f6b6f76616e0000000000000000000000000000000000000000000000815250613dbf565b60019050613856565b600061356573146500cfd35b22e4a392fe0adc06de1a1368ed48612bdc565b11156136075773146500cfd35b22e4a392fe0adc06de1a1368ed48600260006101000a81548173ffffffffffffffffffffffffffffffffffffffff021916908373ffffffffffffffffffffffffffffffffffffffff1602179055506135fe6040518060400160405280600b81526020017f6574685f72696e6b656279000000000000000000000000000000000000000000815250613dbf565b60019050613856565b600061362673a2998efd205fb9d4b4963afb70778d6354ad3a41612bdc565b11156136c85773a2998efd205fb9d4b4963afb70778d6354ad3a41600260006101000a81548173ffffffffffffffffffffffffffffffffffffffff021916908373ffffffffffffffffffffffffffffffffffffffff1602179055506136bf6040518060400160405280600a81526020017f6574685f676f65726c6900000000000000000000000000000000000000000000815250613dbf565b60019050613856565b60006136e7736f485c8bf6fc43ea212e93bbf8ce046c7f1cb475612bdc565b111561374b57736f485c8bf6fc43ea212e93bbf8ce046c7f1cb475600260006101000a81548173ffffffffffffffffffffffffffffffffffffffff021916908373ffffffffffffffffffffffffffffffffffffffff16021790555060019050613856565b600061376a7320e12a1f859b3feae5fb2a0a32c18f5a65555bbf612bdc565b11156137ce577320e12a1f859b3feae5fb2a0a32c18f5a65555bbf600260006101000a81548173ffffffffffffffffffffffffffffffffffffffff021916908373ffffffffffffffffffffffffffffffffffffffff16021790555060019050613856565b60006137ed7351efaf4c8b3c9afbd5ab9f4bbc82784ab6ef8faa612bdc565b1115613851577351efaf4c8b3c9afbd5ab9f4bbc82784ab6ef8faa600260006101000a81548173ffffffffffffffffffffffffffffffffffffffff021916908373ffffffffffffffffffffffffffffffffffffffff16021790555060019050613856565b600090505b90565b60008073ffffffffffffffffffffffffffffffffffffffff16600260009054906101000a900473ffffffffffffffffffffffffffffffffffffffff1673ffffffffffffffffffffffffffffffffffffffff1614806138e1575060006138df600260009054906101000a900473ffffffffffffffffffffffffffffffffffffffff16612bdc565b145b156138f2576138f06000612be7565b505b600260009054906101000a900473ffffffffffffffffffffffffffffffffffffffff1673ffffffffffffffffffffffffffffffffffffffff166338cc48316040518163ffffffff1660e01b8152600401602060405180830381600087803b15801561395c57600080fd5b505af1158015613970573d6000803e3d6000fd5b505050506040513d602081101561398657600080fd5b810190808051906020019092919050505073ffffffffffffffffffffffffffffffffffffffff16600160009054906101000a900473ffffffffffffffffffffffffffffffffffffffff1673ffffffffffffffffffffffffffffffffffffffff1614613ad157600260009054906101000a900473ffffffffffffffffffffffffffffffffffffffff1673ffffffffffffffffffffffffffffffffffffffff166338cc48316040518163ffffffff1660e01b8152600401602060405180830381600087803b158015613a5557600080fd5b505af1158015613a69573d6000803e3d6000fd5b505050506040513d6020811015613a7f57600080fd5b8101908080519060200190929190505050600160006101000a81548173ffffffffffffffffffffffffffffffffffffffff021916908373ffffffffffffffffffffffffffffffffffffffff1602179055505b6000600160009054906101000a900473ffffffffffffffffffffffffffffffffffffffff1673ffffffffffffffffffffffffffffffffffffffff16632ef3accc86856040518363ffffffff1660e01b81526004018080602001838152602001828103825284818151815260200191508051906020019080838360005b83811015613b68578082015181840152602081019050613b4d565b50505050905090810190601f168015613b955780820380516001836020036101000a031916815260200191505b509350505050602060405180830381600087803b158015613bb557600080fd5b505af1158015613bc9573d6000803e3d6000fd5b505050506040513d6020811015613bdf57600080fd5b81019080805190602001909291905050509050823a02670de0b6b3a764000001811115613c12576000801b915050613db8565b6060613c1d85613dd9565b9050600160009054906101000a900473ffffffffffffffffffffffffffffffffffffffff1673ffffffffffffffffffffffffffffffffffffffff1663c55c1cb68360008985896040518663ffffffff1660e01b8152600401808581526020018060200180602001848152602001838103835286818151815260200191508051906020019080838360005b83811015613cc2578082015181840152602081019050613ca7565b50505050905090810190601f168015613cef5780820380516001836020036101000a031916815260200191505b50838103825285818151815260200191508051906020019080838360005b83811015613d28578082015181840152602081019050613d0d565b50505050905090810190601f168015613d555780820380516001836020036101000a031916815260200191505b5096505050505050506020604051808303818588803b158015613d7757600080fd5b505af1158015613d8b573d6000803e3d6000fd5b50505050506040513d6020811015613da257600080fd5b8101908080519060200190929190505050925050505b9392505050565b8060039080519060200190613dd59291906141e2565b5050565b6060613de3613e59565b613deb614372565b613df781610400613e65565b613e0081613eaf565b60008090505b8351811015613e4257613e35848281518110613e1e57fe5b602002602001015183613ebd90919063ffffffff16565b8080600101915050613e06565b50613e4c81613ee2565b8060000151915050919050565b60405180590338823950565b6000819050600060208281613e7657fe5b0614613e8f5760208181613e8657fe5b06602003810190505b808360200181815250506040518084526000815281810160405250505050565b613eba816004613ef0565b50565b613eca8260028351613f11565b613edd818361405190919063ffffffff16565b505050565b613eed816007613ef0565b50565b613f0d601f60058360ff16901b17836140fc90919063ffffffff16565b5050565b60178111613f3d57613f388160058460ff16901b60ff1617846140fc90919063ffffffff16565b61404c565b60ff8111613f7e57613f62601860058460ff16901b17846140fc90919063ffffffff16565b613f788160018561413c9092919063ffffffff16565b5061404b565b61ffff8111613fc057613fa4601960058460ff16901b17846140fc90919063ffffffff16565b613fba8160028561413c9092919063ffffffff16565b5061404a565b63ffffffff811161400457613fe8601a60058460ff16901b17846140fc90919063ffffffff16565b613ffe8160048561413c9092919063ffffffff16565b50614049565b67ffffffffffffffff811161404857614030601b60058460ff16901b17846140fc90919063ffffffff16565b6140468160088561413c9092919063ffffffff16565b505b5b5b5b5b505050565b614059614372565b8260200151836000015151835101111561408957614088836002614082866020015186516141a3565b026141bf565b5b60008060008451905085518051602081830101945086518101825260208701935050505b602081106140d057815183526020830192506020820191506020810390506140ad565b60006001826020036101000a039050801983511681855116818117865250508694505050505092915050565b81602001516001836000015151011115614122576141218260028460200151026141bf565b5b815180516020818301018381536001820183525050505050565b614144614372565b8360200151846000015151830111156141725761417184600261416b8760200151866141a3565b026141bf565b5b60006001836101000a0390508451805184818301018684198251161781528582018352505050849150509392505050565b6000818311156141b5578290506141b9565b8190505b92915050565b6060826000015190506141d28383613e65565b6141dc8382614051565b50505050565b828054600181600116156101000203166002900490600052602060002090601f016020900481019282601f1061422357805160ff1916838001178555614251565b82800160010185558215614251579182015b82811115614250578251825591602001919060010190614235565b5b50905061425e919061438c565b5090565b6040518061014001604052806000815260200160008152602001600073ffffffffffffffffffffffffffffffffffffffff168152602001606081526020016000815260200160008152602001600081526020016000815260200160008152602001600081525090565b828054600181600116156101000203166002900490600052602060002090601f016020900481019282601f1061430c57805160ff191683800117855561433a565b8280016001018555821561433a579182015b8281111561433957825182559160200191906001019061431e565b5b509050614347919061438c565b5090565b60405180608001604052806004905b606081526020019060019003908161435a5790505090565b604051806040016040528060608152602001600081525090565b6143ae91905b808211156143aa576000816000905550600101614392565b5090565b9056fea265627a7a7231582086ab65b745eeae2cb4e02a20c43ac40931731cc6e06c8776447f6eb8a75dd81064736f6c63430005100032",
  "source": "import\"./Ownable.sol\";\r\nimport\"./provableAPI.sol\";\r\n\r\npragma solidity 0.5.16;\r\n\r\ncontract coin is Ownable, usingProvable{\r\n\r\n   struct player {\r\n     uint amount;                          // amount the player want to bet in ether\r\n     uint bet;                             // what the player want to bet: 0 or 1\r\n     address payable playerAddress;        // address of the player\r\n     string message;                       // message after flip: WIN or LOSE\r\n     uint result;                          // result of the coin flip returned from provable\r\n\r\n     uint playerBalance;\r\n\r\n     uint games;\r\n     uint moneyBetted;\r\n     uint gamesWon;\r\n     uint moneyWon;\r\n   }\r\n\r\n   uint public balance;                                    // updated balance of the contract\r\n   uint public minBet;                                     // minimum bet set by the owner\r\n   uint public TotGames;\r\n   uint public TotMoneyBetted;\r\n   uint public TotGamesWon;\r\n   uint public TotMoneyWon;\r\n   uint public TotUniquePlayers;\r\n\r\n   uint public hide;\r\n\r\n   uint256 constant NUM_RANDOM_BYTES_REQUESTED = 1;\r\n   bytes32 queryId;\r\n\r\n   event logNewProvableQuery(string description);\r\n   event generateRandomNumber(uint256 randomNumber);\r\n\r\n   address[] private addresses;\r\n   address[] private addressesFilter;\r\n\r\n\r\n\r\n   function checkOwner() public returns(uint){\r\n       if(msg.sender == owner){\r\n       hide = 1;\r\n       }\r\n       else {\r\n       hide = 0;\r\n       }\r\n\r\n       return hide;\r\n    }\r\n\r\n   modifier costs(uint cost){\r\n       require(msg.value >= cost);\r\n       _;\r\n   }\r\n\r\n// owner send money to the contract at the moment of deployment\r\n   constructor() public payable{\r\n       require(msg.value >= 10000);\r\n       balance += msg.value;\r\n       addresses.push(msg.sender);\r\n       addressesFilter.push(msg.sender);\r\n   }\r\n\r\n   function minimumBet(uint minimum) public onlyOwner returns(uint){\r\n      minBet = minimum;\r\n      return minBet;\r\n   }\r\n\r\n\r\n   mapping (address => player) private players;  // link player to his address\r\n   mapping (bytes32 => player) private playerId; // link player to his queryId\r\n   mapping (address => bool) private waiting;    // link player to his waiting status: true or false\r\n\r\n\r\n\r\n// player set his bet (0 or 1), his bet amount and send that amount to the contract\r\n   function setBet(uint amount, uint bet) public payable costs( (players[msg.sender].amount) ){\r\n\r\n       require(waiting[msg.sender] == false);  // player which is waiting for bet result can't bet before to know the result\r\n\r\n       waiting[msg.sender] = true;  // once th player set the bet his waiting status is set to true\r\n\r\n       balance += msg.value;\r\n\r\n       player memory newPlayer;\r\n       newPlayer.amount = amount;\r\n       newPlayer.bet = bet;\r\n       newPlayer.playerAddress = msg.sender;\r\n\r\n       newPlayer.playerBalance = players[msg.sender].playerBalance;\r\n       newPlayer.games = players[msg.sender].games;\r\n       newPlayer.moneyBetted = players[msg.sender].moneyBetted;\r\n       newPlayer.gamesWon = players[msg.sender].gamesWon;\r\n       newPlayer.moneyWon = players[msg.sender].moneyWon;\r\n\r\n       addresses.push(msg.sender);\r\n\r\n       uint i = 0;\r\n       uint counter = 0;\r\n\r\n       for(i=0; i<addressesFilter.length; i++){\r\n\r\n           if(msg.sender == addressesFilter[i]){\r\n\r\n           counter = counter + 1;\r\n\r\n           }\r\n       }\r\n\r\n       if(counter < 1){\r\n\r\n           addressesFilter.push(msg.sender);\r\n           }\r\n\r\n       insertPlayer(newPlayer);   // players[msg.sender] = newPlayer\r\n\r\n       require((players[msg.sender].amount) >= minBet, \"Bet under minimum bet\");\r\n// require that the amount bet is lower than half balance\r\n       require((players[msg.sender].amount) <= balance/2, \"Bet over contract funds\");\r\n\r\n\r\n       uint256 QUERY_EXECUTION_DELAY = 0;\r\n       uint256 GAS_FOR_CALLBACK = 200000;\r\n       queryId = provable_newRandomDSQuery(\r\n       QUERY_EXECUTION_DELAY,\r\n       NUM_RANDOM_BYTES_REQUESTED,\r\n       GAS_FOR_CALLBACK\r\n       );\r\n\r\n       playerId[queryId] = newPlayer;\r\n   }\r\n\r\n\r\n   function __callback(bytes32 _queryId, string memory _result, bytes memory proof) public {\r\n       require(msg.sender == provable_cbAddress()); //l'address deve essere quello dell'oracle\r\n\r\n       uint256 randomNumber = uint256(keccak256(abi.encodePacked(_result))) % 2;\r\n\r\n       emit generateRandomNumber(randomNumber);\r\n\r\n       if(randomNumber == (playerId[_queryId].bet)){\r\n\r\n       balance = balance - (playerId[_queryId].amount)*2;\r\n\r\n       players[playerId[_queryId].playerAddress].playerBalance = players[playerId[_queryId].playerAddress].playerBalance + ( (playerId[_queryId].amount)*2 );\r\n\r\n       players[playerId[_queryId].playerAddress].message = \"WIN\";\r\n       players[playerId[_queryId].playerAddress].result = randomNumber;\r\n\r\n       players[playerId[_queryId].playerAddress].gamesWon = players[playerId[_queryId].playerAddress].gamesWon + 1;\r\n       players[playerId[_queryId].playerAddress].moneyWon = players[playerId[_queryId].playerAddress].moneyWon + (playerId[_queryId].amount);\r\n\r\n      TotGamesWon = 1 + TotGamesWon;\r\n      TotMoneyWon = (playerId[_queryId].amount) + TotMoneyWon;\r\n\r\n       }\r\n           else{\r\n\r\n           players[playerId[_queryId].playerAddress].message = \"LOSE\";\r\n           players[playerId[_queryId].playerAddress].result = randomNumber;\r\n           }\r\n\r\n\r\n       players[playerId[_queryId].playerAddress].games = players[playerId[_queryId].playerAddress].games + 1;\r\n       players[playerId[_queryId].playerAddress].moneyBetted = players[playerId[_queryId].playerAddress].moneyBetted + (playerId[_queryId].amount);\r\n       //maxBet = balance/2;\r\n\r\n\r\n       TotGames = addresses.length -1;\r\n       TotMoneyBetted = playerId[_queryId].amount + TotMoneyBetted;\r\n       TotUniquePlayers = addressesFilter.length -1;\r\n\r\n   waiting[playerId[_queryId].playerAddress] = false;\r\n   }\r\n\r\n\r\n\r\n\r\n\r\nfunction getResult() public view returns(uint amount, uint bet, string memory message, uint result, uint playerBalance, uint games, uint moneyBetted, uint gamesWon, uint moneyWon){\r\n        address creator = msg.sender;\r\n\r\n        return (players[creator].amount, players[creator].bet, players[creator].message, players[creator].result, players[creator].playerBalance, players[creator].games, players[creator].moneyBetted, players[creator].gamesWon, players[creator].moneyWon );\r\n    }\r\n\r\n   function depositFunds(uint deposit) public payable onlyOwner costs( deposit ){\r\n\r\n   balance = balance + deposit;\r\n\r\n}\r\n\r\n\r\n\r\n\r\n// only owner can withdraw money\r\n   function withdrawFunds(uint withdraw) public onlyOwner {\r\n\r\n      balance = balance - withdraw;\r\n      msg.sender.transfer(withdraw);\r\n  }\r\n\r\n\r\n  function withdrawFundsPlayer(uint withdraw) public {\r\n      require(withdraw<players[msg.sender].playerBalance);\r\n\r\n      players[msg.sender].playerBalance = players[msg.sender].playerBalance - (withdraw);\r\n      msg.sender.transfer(withdraw);\r\n\r\n  }\r\n\r\n\r\n function insertPlayer(player memory newPlayer) private {\r\n       address creator = msg.sender;\r\n       players[creator] = newPlayer;\r\n       }\r\n\r\n\r\n       function getStatistics(address infoaddress) public view onlyOwner returns(uint games, uint moneyBetted, uint gamesWon, uint moneyWon, uint playerBalance){\r\n\r\n\r\n        return (players[infoaddress].games, players[infoaddress].moneyBetted, players[infoaddress].gamesWon, players[infoaddress].moneyWon, players[infoaddress].playerBalance );\r\n    }\r\n\r\n    function getAddress(uint number) public view onlyOwner returns(address infoaddress){\r\n\r\n        infoaddress = addressesFilter[number];\r\n\r\n        return (infoaddress);\r\n    }\r\n\r\n\r\n}\r\n",
  "sourcePath": "C:\\Users\\enrico\\Desktop\\coding\\truffle\\coin_contract1\\contracts\\coin.sol",
  "compiler": {
    "name": "solc",
    "version": "0.5.16+commit.9c3226ce.Emscripten.clang"
  },
  "schemaVersion": "3.0.23",
  "updatedAt": "2021-02-11T12:41:30.140Z",
  "networkType": "ethereum",
  "devdoc": {
    "methods": {
      "__callback(bytes32,string)": {
        "details": "The following `__callback` functions are just placeholders ideally     meant to be defined in child contract when proofs are used.     The function bodies simply silence compiler warnings."
      }
    }
  },
  "userdoc": {
    "methods": {}
  }
}